{
  "_format": "hh-sol-artifact-1",
  "contractName": "NftMarketplace",
  "sourceName": "contracts/marketplace/NftMarketplace.sol",
  "abi": [
    {
      "inputs": [],
      "stateMutability": "nonpayable",
      "type": "constructor"
    },
    {
      "anonymous": false,
      "inputs": [
        {
          "indexed": false,
          "internalType": "address",
          "name": "previousAdmin",
          "type": "address"
        },
        {
          "indexed": false,
          "internalType": "address",
          "name": "newAdmin",
          "type": "address"
        }
      ],
      "name": "AdminChanged",
      "type": "event"
    },
    {
      "anonymous": false,
      "inputs": [
        {
          "indexed": false,
          "internalType": "bytes32",
          "name": "structHash",
          "type": "bytes32"
        },
        {
          "indexed": true,
          "internalType": "address",
          "name": "maker",
          "type": "address"
        }
      ],
      "name": "Approval",
      "type": "event"
    },
    {
      "anonymous": false,
      "inputs": [
        {
          "indexed": true,
          "internalType": "address",
          "name": "beacon",
          "type": "address"
        }
      ],
      "name": "BeaconUpgraded",
      "type": "event"
    },
    {
      "anonymous": false,
      "inputs": [
        {
          "indexed": false,
          "internalType": "bytes32",
          "name": "structHash",
          "type": "bytes32"
        },
        {
          "indexed": true,
          "internalType": "address",
          "name": "maker",
          "type": "address"
        }
      ],
      "name": "Cancel",
      "type": "event"
    },
    {
      "anonymous": false,
      "inputs": [
        {
          "indexed": true,
          "internalType": "address",
          "name": "aggregator",
          "type": "address"
        },
        {
          "indexed": false,
          "internalType": "bool",
          "name": "status",
          "type": "bool"
        }
      ],
      "name": "EditAggregator",
      "type": "event"
    },
    {
      "anonymous": false,
      "inputs": [
        {
          "indexed": false,
          "internalType": "uint48",
          "name": "discount",
          "type": "uint48"
        }
      ],
      "name": "FunTokenDiscount",
      "type": "event"
    },
    {
      "anonymous": false,
      "inputs": [
        {
          "indexed": false,
          "internalType": "uint8",
          "name": "version",
          "type": "uint8"
        }
      ],
      "name": "Initialized",
      "type": "event"
    },
    {
      "anonymous": false,
      "inputs": [
        {
          "indexed": true,
          "internalType": "address",
          "name": "maker",
          "type": "address"
        },
        {
          "indexed": false,
          "internalType": "uint256",
          "name": "newNonce",
          "type": "uint256"
        }
      ],
      "name": "NonceIncremented",
      "type": "event"
    },
    {
      "anonymous": false,
      "inputs": [
        {
          "indexed": true,
          "internalType": "address",
          "name": "previousOwner",
          "type": "address"
        },
        {
          "indexed": true,
          "internalType": "address",
          "name": "newOwner",
          "type": "address"
        }
      ],
      "name": "OwnershipTransferred",
      "type": "event"
    },
    {
      "anonymous": false,
      "inputs": [
        {
          "indexed": false,
          "internalType": "uint256",
          "name": "publicFee",
          "type": "uint256"
        },
        {
          "indexed": false,
          "internalType": "uint48",
          "name": "profileFee",
          "type": "uint48"
        },
        {
          "indexed": false,
          "internalType": "uint48",
          "name": "gkFee",
          "type": "uint48"
        },
        {
          "indexed": false,
          "internalType": "uint48",
          "name": "offerGk",
          "type": "uint48"
        },
        {
          "indexed": false,
          "internalType": "uint48",
          "name": "offerProfile",
          "type": "uint48"
        }
      ],
      "name": "ProtocolFeeChange",
      "type": "event"
    },
    {
      "anonymous": false,
      "inputs": [
        {
          "indexed": true,
          "internalType": "bytes4",
          "name": "assetType",
          "type": "bytes4"
        },
        {
          "indexed": false,
          "internalType": "address",
          "name": "proxy",
          "type": "address"
        }
      ],
      "name": "ProxyChange",
      "type": "event"
    },
    {
      "anonymous": false,
      "inputs": [
        {
          "indexed": true,
          "internalType": "address",
          "name": "token",
          "type": "address"
        },
        {
          "indexed": true,
          "internalType": "address",
          "name": "owner",
          "type": "address"
        },
        {
          "indexed": false,
          "internalType": "uint256",
          "name": "percent",
          "type": "uint256"
        },
        {
          "indexed": true,
          "internalType": "address",
          "name": "setter",
          "type": "address"
        }
      ],
      "name": "RoyaltyInfoChange",
      "type": "event"
    },
    {
      "anonymous": false,
      "inputs": [
        {
          "components": [
            {
              "components": [
                {
                  "internalType": "bytes4",
                  "name": "assetClass",
                  "type": "bytes4"
                },
                {
                  "internalType": "bytes",
                  "name": "data",
                  "type": "bytes"
                }
              ],
              "internalType": "struct LibAsset.AssetType",
              "name": "assetType",
              "type": "tuple"
            },
            {
              "internalType": "bytes",
              "name": "data",
              "type": "bytes"
            }
          ],
          "indexed": false,
          "internalType": "struct LibAsset.Asset",
          "name": "asset",
          "type": "tuple"
        },
        {
          "indexed": true,
          "internalType": "address",
          "name": "from",
          "type": "address"
        },
        {
          "indexed": true,
          "internalType": "address",
          "name": "to",
          "type": "address"
        }
      ],
      "name": "Transfer",
      "type": "event"
    },
    {
      "anonymous": false,
      "inputs": [
        {
          "indexed": true,
          "internalType": "address",
          "name": "implementation",
          "type": "address"
        }
      ],
      "name": "Upgraded",
      "type": "event"
    },
    {
      "anonymous": false,
      "inputs": [
        {
          "indexed": true,
          "internalType": "address",
          "name": "token",
          "type": "address"
        },
        {
          "indexed": false,
          "internalType": "bool",
          "name": "value",
          "type": "bool"
        }
      ],
      "name": "WhitelistChange",
      "type": "event"
    },
    {
      "inputs": [],
      "name": "MAX_PROTOCOL_FEE",
      "outputs": [
        {
          "internalType": "uint48",
          "name": "",
          "type": "uint48"
        }
      ],
      "stateMutability": "view",
      "type": "function"
    },
    {
      "inputs": [],
      "name": "MAX_ROYALTY",
      "outputs": [
        {
          "internalType": "uint48",
          "name": "",
          "type": "uint48"
        }
      ],
      "stateMutability": "view",
      "type": "function"
    },
    {
      "inputs": [
        {
          "internalType": "address",
          "name": "",
          "type": "address"
        }
      ],
      "name": "aggregator",
      "outputs": [
        {
          "internalType": "bool",
          "name": "",
          "type": "bool"
        }
      ],
      "stateMutability": "view",
      "type": "function"
    },
    {
      "inputs": [
        {
          "components": [
            {
              "internalType": "address",
              "name": "maker",
              "type": "address"
            },
            {
              "components": [
                {
                  "components": [
                    {
                      "internalType": "bytes4",
                      "name": "assetClass",
                      "type": "bytes4"
                    },
                    {
                      "internalType": "bytes",
                      "name": "data",
                      "type": "bytes"
                    }
                  ],
                  "internalType": "struct LibAsset.AssetType",
                  "name": "assetType",
                  "type": "tuple"
                },
                {
                  "internalType": "bytes",
                  "name": "data",
                  "type": "bytes"
                }
              ],
              "internalType": "struct LibAsset.Asset[]",
              "name": "makeAssets",
              "type": "tuple[]"
            },
            {
              "internalType": "address",
              "name": "taker",
              "type": "address"
            },
            {
              "components": [
                {
                  "components": [
                    {
                      "internalType": "bytes4",
                      "name": "assetClass",
                      "type": "bytes4"
                    },
                    {
                      "internalType": "bytes",
                      "name": "data",
                      "type": "bytes"
                    }
                  ],
                  "internalType": "struct LibAsset.AssetType",
                  "name": "assetType",
                  "type": "tuple"
                },
                {
                  "internalType": "bytes",
                  "name": "data",
                  "type": "bytes"
                }
              ],
              "internalType": "struct LibAsset.Asset[]",
              "name": "takeAssets",
              "type": "tuple[]"
            },
            {
              "internalType": "uint256",
              "name": "salt",
              "type": "uint256"
            },
            {
              "internalType": "uint256",
              "name": "start",
              "type": "uint256"
            },
            {
              "internalType": "uint256",
              "name": "end",
              "type": "uint256"
            },
            {
              "internalType": "uint256",
              "name": "nonce",
              "type": "uint256"
            },
            {
              "internalType": "enum LibSignature.AuctionType",
              "name": "auctionType",
              "type": "uint8"
            }
          ],
          "internalType": "struct LibSignature.Order",
          "name": "order",
          "type": "tuple"
        }
      ],
      "name": "approveOrder_",
      "outputs": [],
      "stateMutability": "nonpayable",
      "type": "function"
    },
    {
      "inputs": [
        {
          "components": [
            {
              "internalType": "address",
              "name": "maker",
              "type": "address"
            },
            {
              "components": [
                {
                  "components": [
                    {
                      "internalType": "bytes4",
                      "name": "assetClass",
                      "type": "bytes4"
                    },
                    {
                      "internalType": "bytes",
                      "name": "data",
                      "type": "bytes"
                    }
                  ],
                  "internalType": "struct LibAsset.AssetType",
                  "name": "assetType",
                  "type": "tuple"
                },
                {
                  "internalType": "bytes",
                  "name": "data",
                  "type": "bytes"
                }
              ],
              "internalType": "struct LibAsset.Asset[]",
              "name": "makeAssets",
              "type": "tuple[]"
            },
            {
              "internalType": "address",
              "name": "taker",
              "type": "address"
            },
            {
              "components": [
                {
                  "components": [
                    {
                      "internalType": "bytes4",
                      "name": "assetClass",
                      "type": "bytes4"
                    },
                    {
                      "internalType": "bytes",
                      "name": "data",
                      "type": "bytes"
                    }
                  ],
                  "internalType": "struct LibAsset.AssetType",
                  "name": "assetType",
                  "type": "tuple"
                },
                {
                  "internalType": "bytes",
                  "name": "data",
                  "type": "bytes"
                }
              ],
              "internalType": "struct LibAsset.Asset[]",
              "name": "takeAssets",
              "type": "tuple[]"
            },
            {
              "internalType": "uint256",
              "name": "salt",
              "type": "uint256"
            },
            {
              "internalType": "uint256",
              "name": "start",
              "type": "uint256"
            },
            {
              "internalType": "uint256",
              "name": "end",
              "type": "uint256"
            },
            {
              "internalType": "uint256",
              "name": "nonce",
              "type": "uint256"
            },
            {
              "internalType": "enum LibSignature.AuctionType",
              "name": "auctionType",
              "type": "uint8"
            }
          ],
          "internalType": "struct LibSignature.Order",
          "name": "sellOrder",
          "type": "tuple"
        },
        {
          "internalType": "address",
          "name": "recipient",
          "type": "address"
        },
        {
          "internalType": "uint8",
          "name": "v",
          "type": "uint8"
        },
        {
          "internalType": "bytes32",
          "name": "r",
          "type": "bytes32"
        },
        {
          "internalType": "bytes32",
          "name": "s",
          "type": "bytes32"
        }
      ],
      "name": "buyNow",
      "outputs": [],
      "stateMutability": "payable",
      "type": "function"
    },
    {
      "inputs": [
        {
          "components": [
            {
              "internalType": "address",
              "name": "maker",
              "type": "address"
            },
            {
              "components": [
                {
                  "components": [
                    {
                      "internalType": "bytes4",
                      "name": "assetClass",
                      "type": "bytes4"
                    },
                    {
                      "internalType": "bytes",
                      "name": "data",
                      "type": "bytes"
                    }
                  ],
                  "internalType": "struct LibAsset.AssetType",
                  "name": "assetType",
                  "type": "tuple"
                },
                {
                  "internalType": "bytes",
                  "name": "data",
                  "type": "bytes"
                }
              ],
              "internalType": "struct LibAsset.Asset[]",
              "name": "makeAssets",
              "type": "tuple[]"
            },
            {
              "internalType": "address",
              "name": "taker",
              "type": "address"
            },
            {
              "components": [
                {
                  "components": [
                    {
                      "internalType": "bytes4",
                      "name": "assetClass",
                      "type": "bytes4"
                    },
                    {
                      "internalType": "bytes",
                      "name": "data",
                      "type": "bytes"
                    }
                  ],
                  "internalType": "struct LibAsset.AssetType",
                  "name": "assetType",
                  "type": "tuple"
                },
                {
                  "internalType": "bytes",
                  "name": "data",
                  "type": "bytes"
                }
              ],
              "internalType": "struct LibAsset.Asset[]",
              "name": "takeAssets",
              "type": "tuple[]"
            },
            {
              "internalType": "uint256",
              "name": "salt",
              "type": "uint256"
            },
            {
              "internalType": "uint256",
              "name": "start",
              "type": "uint256"
            },
            {
              "internalType": "uint256",
              "name": "end",
              "type": "uint256"
            },
            {
              "internalType": "uint256",
              "name": "nonce",
              "type": "uint256"
            },
            {
              "internalType": "enum LibSignature.AuctionType",
              "name": "auctionType",
              "type": "uint8"
            }
          ],
          "internalType": "struct LibSignature.Order",
          "name": "order",
          "type": "tuple"
        }
      ],
      "name": "cancel",
      "outputs": [],
      "stateMutability": "nonpayable",
      "type": "function"
    },
    {
      "inputs": [
        {
          "internalType": "bytes32",
          "name": "",
          "type": "bytes32"
        }
      ],
      "name": "cancelledOrFinalized",
      "outputs": [
        {
          "internalType": "bool",
          "name": "",
          "type": "bool"
        }
      ],
      "stateMutability": "view",
      "type": "function"
    },
    {
      "inputs": [
        {
          "internalType": "address",
          "name": "_aggregator",
          "type": "address"
        },
        {
          "internalType": "bool",
          "name": "_status",
          "type": "bool"
        }
      ],
      "name": "editAggregator",
      "outputs": [],
      "stateMutability": "nonpayable",
      "type": "function"
    },
    {
      "inputs": [
        {
          "components": [
            {
              "internalType": "address",
              "name": "maker",
              "type": "address"
            },
            {
              "components": [
                {
                  "components": [
                    {
                      "internalType": "bytes4",
                      "name": "assetClass",
                      "type": "bytes4"
                    },
                    {
                      "internalType": "bytes",
                      "name": "data",
                      "type": "bytes"
                    }
                  ],
                  "internalType": "struct LibAsset.AssetType",
                  "name": "assetType",
                  "type": "tuple"
                },
                {
                  "internalType": "bytes",
                  "name": "data",
                  "type": "bytes"
                }
              ],
              "internalType": "struct LibAsset.Asset[]",
              "name": "makeAssets",
              "type": "tuple[]"
            },
            {
              "internalType": "address",
              "name": "taker",
              "type": "address"
            },
            {
              "components": [
                {
                  "components": [
                    {
                      "internalType": "bytes4",
                      "name": "assetClass",
                      "type": "bytes4"
                    },
                    {
                      "internalType": "bytes",
                      "name": "data",
                      "type": "bytes"
                    }
                  ],
                  "internalType": "struct LibAsset.AssetType",
                  "name": "assetType",
                  "type": "tuple"
                },
                {
                  "internalType": "bytes",
                  "name": "data",
                  "type": "bytes"
                }
              ],
              "internalType": "struct LibAsset.Asset[]",
              "name": "takeAssets",
              "type": "tuple[]"
            },
            {
              "internalType": "uint256",
              "name": "salt",
              "type": "uint256"
            },
            {
              "internalType": "uint256",
              "name": "start",
              "type": "uint256"
            },
            {
              "internalType": "uint256",
              "name": "end",
              "type": "uint256"
            },
            {
              "internalType": "uint256",
              "name": "nonce",
              "type": "uint256"
            },
            {
              "internalType": "enum LibSignature.AuctionType",
              "name": "auctionType",
              "type": "uint8"
            }
          ],
          "internalType": "struct LibSignature.Order",
          "name": "sellOrder",
          "type": "tuple"
        },
        {
          "components": [
            {
              "internalType": "address",
              "name": "maker",
              "type": "address"
            },
            {
              "components": [
                {
                  "components": [
                    {
                      "internalType": "bytes4",
                      "name": "assetClass",
                      "type": "bytes4"
                    },
                    {
                      "internalType": "bytes",
                      "name": "data",
                      "type": "bytes"
                    }
                  ],
                  "internalType": "struct LibAsset.AssetType",
                  "name": "assetType",
                  "type": "tuple"
                },
                {
                  "internalType": "bytes",
                  "name": "data",
                  "type": "bytes"
                }
              ],
              "internalType": "struct LibAsset.Asset[]",
              "name": "makeAssets",
              "type": "tuple[]"
            },
            {
              "internalType": "address",
              "name": "taker",
              "type": "address"
            },
            {
              "components": [
                {
                  "components": [
                    {
                      "internalType": "bytes4",
                      "name": "assetClass",
                      "type": "bytes4"
                    },
                    {
                      "internalType": "bytes",
                      "name": "data",
                      "type": "bytes"
                    }
                  ],
                  "internalType": "struct LibAsset.AssetType",
                  "name": "assetType",
                  "type": "tuple"
                },
                {
                  "internalType": "bytes",
                  "name": "data",
                  "type": "bytes"
                }
              ],
              "internalType": "struct LibAsset.Asset[]",
              "name": "takeAssets",
              "type": "tuple[]"
            },
            {
              "internalType": "uint256",
              "name": "salt",
              "type": "uint256"
            },
            {
              "internalType": "uint256",
              "name": "start",
              "type": "uint256"
            },
            {
              "internalType": "uint256",
              "name": "end",
              "type": "uint256"
            },
            {
              "internalType": "uint256",
              "name": "nonce",
              "type": "uint256"
            },
            {
              "internalType": "enum LibSignature.AuctionType",
              "name": "auctionType",
              "type": "uint8"
            }
          ],
          "internalType": "struct LibSignature.Order",
          "name": "buyOrder",
          "type": "tuple"
        },
        {
          "internalType": "uint8[2]",
          "name": "v",
          "type": "uint8[2]"
        },
        {
          "internalType": "bytes32[2]",
          "name": "r",
          "type": "bytes32[2]"
        },
        {
          "internalType": "bytes32[2]",
          "name": "s",
          "type": "bytes32[2]"
        }
      ],
      "name": "executeSwap",
      "outputs": [],
      "stateMutability": "payable",
      "type": "function"
    },
    {
      "inputs": [],
      "name": "funToken",
      "outputs": [
        {
          "internalType": "address",
          "name": "",
          "type": "address"
        }
      ],
      "stateMutability": "view",
      "type": "function"
    },
    {
      "inputs": [],
      "name": "funTokenDiscount",
      "outputs": [
        {
          "internalType": "uint48",
          "name": "",
          "type": "uint48"
        }
      ],
      "stateMutability": "view",
      "type": "function"
    },
    {
      "inputs": [],
      "name": "gkContract",
      "outputs": [
        {
          "internalType": "address",
          "name": "",
          "type": "address"
        }
      ],
      "stateMutability": "view",
      "type": "function"
    },
    {
      "inputs": [],
      "name": "gkFee",
      "outputs": [
        {
          "internalType": "uint48",
          "name": "",
          "type": "uint48"
        }
      ],
      "stateMutability": "view",
      "type": "function"
    },
    {
      "inputs": [],
      "name": "incrementNonce",
      "outputs": [],
      "stateMutability": "nonpayable",
      "type": "function"
    },
    {
      "inputs": [
        {
          "internalType": "contract INftTransferProxy",
          "name": "_transferProxy",
          "type": "address"
        },
        {
          "internalType": "contract IERC20TransferProxy",
          "name": "_erc20TransferProxy",
          "type": "address"
        },
        {
          "internalType": "address",
          "name": "_cryptoKittyProxy",
          "type": "address"
        },
        {
          "internalType": "address",
          "name": "_stakingContract",
          "type": "address"
        },
        {
          "internalType": "address",
          "name": "_funToken",
          "type": "address"
        },
        {
          "internalType": "contract ValidationLogic",
          "name": "_validationLogic",
          "type": "address"
        },
        {
          "internalType": "contract MarketplaceEvent",
          "name": "_marketplaceEvent",
          "type": "address"
        },
        {
          "internalType": "address",
          "name": "_nftProfile",
          "type": "address"
        },
        {
          "internalType": "address",
          "name": "_gkContract",
          "type": "address"
        }
      ],
      "name": "initialize",
      "outputs": [],
      "stateMutability": "nonpayable",
      "type": "function"
    },
    {
      "inputs": [],
      "name": "marketplaceEvent",
      "outputs": [
        {
          "internalType": "contract MarketplaceEvent",
          "name": "",
          "type": "address"
        }
      ],
      "stateMutability": "view",
      "type": "function"
    },
    {
      "inputs": [
        {
          "internalType": "address",
          "name": "_token",
          "type": "address"
        },
        {
          "internalType": "bool",
          "name": "_val",
          "type": "bool"
        }
      ],
      "name": "modifyWhitelist",
      "outputs": [],
      "stateMutability": "nonpayable",
      "type": "function"
    },
    {
      "inputs": [],
      "name": "nftBuyContract",
      "outputs": [
        {
          "internalType": "address",
          "name": "",
          "type": "address"
        }
      ],
      "stateMutability": "view",
      "type": "function"
    },
    {
      "inputs": [],
      "name": "nftProfile",
      "outputs": [
        {
          "internalType": "address",
          "name": "",
          "type": "address"
        }
      ],
      "stateMutability": "view",
      "type": "function"
    },
    {
      "inputs": [
        {
          "internalType": "address",
          "name": "",
          "type": "address"
        }
      ],
      "name": "nonces",
      "outputs": [
        {
          "internalType": "uint256",
          "name": "",
          "type": "uint256"
        }
      ],
      "stateMutability": "view",
      "type": "function"
    },
    {
      "inputs": [],
      "name": "offerGk",
      "outputs": [
        {
          "internalType": "uint48",
          "name": "",
          "type": "uint48"
        }
      ],
      "stateMutability": "view",
      "type": "function"
    },
    {
      "inputs": [],
      "name": "offerProfile",
      "outputs": [
        {
          "internalType": "uint48",
          "name": "",
          "type": "uint48"
        }
      ],
      "stateMutability": "view",
      "type": "function"
    },
    {
      "inputs": [
        {
          "components": [
            {
              "internalType": "address",
              "name": "maker",
              "type": "address"
            },
            {
              "components": [
                {
                  "components": [
                    {
                      "internalType": "bytes4",
                      "name": "assetClass",
                      "type": "bytes4"
                    },
                    {
                      "internalType": "bytes",
                      "name": "data",
                      "type": "bytes"
                    }
                  ],
                  "internalType": "struct LibAsset.AssetType",
                  "name": "assetType",
                  "type": "tuple"
                },
                {
                  "internalType": "bytes",
                  "name": "data",
                  "type": "bytes"
                }
              ],
              "internalType": "struct LibAsset.Asset[]",
              "name": "makeAssets",
              "type": "tuple[]"
            },
            {
              "internalType": "address",
              "name": "taker",
              "type": "address"
            },
            {
              "components": [
                {
                  "components": [
                    {
                      "internalType": "bytes4",
                      "name": "assetClass",
                      "type": "bytes4"
                    },
                    {
                      "internalType": "bytes",
                      "name": "data",
                      "type": "bytes"
                    }
                  ],
                  "internalType": "struct LibAsset.AssetType",
                  "name": "assetType",
                  "type": "tuple"
                },
                {
                  "internalType": "bytes",
                  "name": "data",
                  "type": "bytes"
                }
              ],
              "internalType": "struct LibAsset.Asset[]",
              "name": "takeAssets",
              "type": "tuple[]"
            },
            {
              "internalType": "uint256",
              "name": "salt",
              "type": "uint256"
            },
            {
              "internalType": "uint256",
              "name": "start",
              "type": "uint256"
            },
            {
              "internalType": "uint256",
              "name": "end",
              "type": "uint256"
            },
            {
              "internalType": "uint256",
              "name": "nonce",
              "type": "uint256"
            },
            {
              "internalType": "enum LibSignature.AuctionType",
              "name": "auctionType",
              "type": "uint8"
            }
          ],
          "internalType": "struct LibSignature.Order",
          "name": "order",
          "type": "tuple"
        }
      ],
      "name": "orderApproved",
      "outputs": [
        {
          "internalType": "bool",
          "name": "approved",
          "type": "bool"
        }
      ],
      "stateMutability": "view",
      "type": "function"
    },
    {
      "inputs": [],
      "name": "owner",
      "outputs": [
        {
          "internalType": "address",
          "name": "",
          "type": "address"
        }
      ],
      "stateMutability": "view",
      "type": "function"
    },
    {
      "inputs": [],
      "name": "profileFee",
      "outputs": [
        {
          "internalType": "uint48",
          "name": "",
          "type": "uint48"
        }
      ],
      "stateMutability": "view",
      "type": "function"
    },
    {
      "inputs": [],
      "name": "protocolFee",
      "outputs": [
        {
          "internalType": "uint256",
          "name": "",
          "type": "uint256"
        }
      ],
      "stateMutability": "view",
      "type": "function"
    },
    {
      "inputs": [],
      "name": "proxiableUUID",
      "outputs": [
        {
          "internalType": "bytes32",
          "name": "",
          "type": "bytes32"
        }
      ],
      "stateMutability": "view",
      "type": "function"
    },
    {
      "inputs": [
        {
          "internalType": "bytes4",
          "name": "",
          "type": "bytes4"
        }
      ],
      "name": "proxies",
      "outputs": [
        {
          "internalType": "address",
          "name": "",
          "type": "address"
        }
      ],
      "stateMutability": "view",
      "type": "function"
    },
    {
      "inputs": [],
      "name": "renounceOwnership",
      "outputs": [],
      "stateMutability": "nonpayable",
      "type": "function"
    },
    {
      "inputs": [
        {
          "internalType": "address",
          "name": "",
          "type": "address"
        }
      ],
      "name": "royaltyInfo",
      "outputs": [
        {
          "internalType": "address",
          "name": "owner",
          "type": "address"
        },
        {
          "internalType": "uint96",
          "name": "percent",
          "type": "uint96"
        }
      ],
      "stateMutability": "view",
      "type": "function"
    },
    {
      "inputs": [
        {
          "internalType": "address",
          "name": "_funToken",
          "type": "address"
        }
      ],
      "name": "setFunToken",
      "outputs": [],
      "stateMutability": "nonpayable",
      "type": "function"
    },
    {
      "inputs": [
        {
          "internalType": "uint48",
          "name": "_discount",
          "type": "uint48"
        }
      ],
      "name": "setFunTokenDiscount",
      "outputs": [],
      "stateMutability": "nonpayable",
      "type": "function"
    },
    {
      "inputs": [
        {
          "internalType": "address",
          "name": "_gkContract",
          "type": "address"
        }
      ],
      "name": "setGkContract",
      "outputs": [],
      "stateMutability": "nonpayable",
      "type": "function"
    },
    {
      "inputs": [
        {
          "internalType": "address",
          "name": "_nftBuyContract",
          "type": "address"
        }
      ],
      "name": "setNftBuyContract",
      "outputs": [],
      "stateMutability": "nonpayable",
      "type": "function"
    },
    {
      "inputs": [
        {
          "internalType": "address",
          "name": "_nftProfile",
          "type": "address"
        }
      ],
      "name": "setNftProfile",
      "outputs": [],
      "stateMutability": "nonpayable",
      "type": "function"
    },
    {
      "inputs": [
        {
          "internalType": "address",
          "name": "nftContract",
          "type": "address"
        },
        {
          "internalType": "address",
          "name": "recipient",
          "type": "address"
        },
        {
          "internalType": "uint256",
          "name": "amount",
          "type": "uint256"
        }
      ],
      "name": "setRoyalty",
      "outputs": [],
      "stateMutability": "nonpayable",
      "type": "function"
    },
    {
      "inputs": [
        {
          "internalType": "address",
          "name": "nftContract",
          "type": "address"
        },
        {
          "internalType": "address",
          "name": "recipient",
          "type": "address"
        },
        {
          "internalType": "uint256",
          "name": "amount",
          "type": "uint256"
        }
      ],
      "name": "setRoyaltyOwnerAdmin",
      "outputs": [],
      "stateMutability": "nonpayable",
      "type": "function"
    },
    {
      "inputs": [
        {
          "internalType": "bytes4",
          "name": "assetType",
          "type": "bytes4"
        },
        {
          "internalType": "address",
          "name": "proxy",
          "type": "address"
        }
      ],
      "name": "setTransferProxy",
      "outputs": [],
      "stateMutability": "nonpayable",
      "type": "function"
    },
    {
      "inputs": [
        {
          "internalType": "address",
          "name": "newOwner",
          "type": "address"
        }
      ],
      "name": "transferOwnership",
      "outputs": [],
      "stateMutability": "nonpayable",
      "type": "function"
    },
    {
      "inputs": [],
      "name": "unusedVar",
      "outputs": [
        {
          "internalType": "uint48",
          "name": "",
          "type": "uint48"
        }
      ],
      "stateMutability": "view",
      "type": "function"
    },
    {
      "inputs": [
        {
          "internalType": "uint256",
          "name": "feeType",
          "type": "uint256"
        },
        {
          "internalType": "uint256",
          "name": "_newFee",
          "type": "uint256"
        }
      ],
      "name": "updateFee",
      "outputs": [],
      "stateMutability": "nonpayable",
      "type": "function"
    },
    {
      "inputs": [
        {
          "internalType": "address",
          "name": "newImplementation",
          "type": "address"
        }
      ],
      "name": "upgradeTo",
      "outputs": [],
      "stateMutability": "nonpayable",
      "type": "function"
    },
    {
      "inputs": [
        {
          "internalType": "address",
          "name": "newImplementation",
          "type": "address"
        },
        {
          "internalType": "bytes",
          "name": "data",
          "type": "bytes"
        }
      ],
      "name": "upgradeToAndCall",
      "outputs": [],
      "stateMutability": "payable",
      "type": "function"
    },
    {
      "inputs": [
        {
          "components": [
            {
              "internalType": "address",
              "name": "maker",
              "type": "address"
            },
            {
              "components": [
                {
                  "components": [
                    {
                      "internalType": "bytes4",
                      "name": "assetClass",
                      "type": "bytes4"
                    },
                    {
                      "internalType": "bytes",
                      "name": "data",
                      "type": "bytes"
                    }
                  ],
                  "internalType": "struct LibAsset.AssetType",
                  "name": "assetType",
                  "type": "tuple"
                },
                {
                  "internalType": "bytes",
                  "name": "data",
                  "type": "bytes"
                }
              ],
              "internalType": "struct LibAsset.Asset[]",
              "name": "makeAssets",
              "type": "tuple[]"
            },
            {
              "internalType": "address",
              "name": "taker",
              "type": "address"
            },
            {
              "components": [
                {
                  "components": [
                    {
                      "internalType": "bytes4",
                      "name": "assetClass",
                      "type": "bytes4"
                    },
                    {
                      "internalType": "bytes",
                      "name": "data",
                      "type": "bytes"
                    }
                  ],
                  "internalType": "struct LibAsset.AssetType",
                  "name": "assetType",
                  "type": "tuple"
                },
                {
                  "internalType": "bytes",
                  "name": "data",
                  "type": "bytes"
                }
              ],
              "internalType": "struct LibAsset.Asset[]",
              "name": "takeAssets",
              "type": "tuple[]"
            },
            {
              "internalType": "uint256",
              "name": "salt",
              "type": "uint256"
            },
            {
              "internalType": "uint256",
              "name": "start",
              "type": "uint256"
            },
            {
              "internalType": "uint256",
              "name": "end",
              "type": "uint256"
            },
            {
              "internalType": "uint256",
              "name": "nonce",
              "type": "uint256"
            },
            {
              "internalType": "enum LibSignature.AuctionType",
              "name": "auctionType",
              "type": "uint8"
            }
          ],
          "internalType": "struct LibSignature.Order",
          "name": "order",
          "type": "tuple"
        },
        {
          "internalType": "uint8",
          "name": "v",
          "type": "uint8"
        },
        {
          "internalType": "bytes32",
          "name": "r",
          "type": "bytes32"
        },
        {
          "internalType": "bytes32",
          "name": "s",
          "type": "bytes32"
        }
      ],
      "name": "validateOrder_",
      "outputs": [
        {
          "internalType": "bool",
          "name": "",
          "type": "bool"
        },
        {
          "internalType": "bytes32",
          "name": "",
          "type": "bytes32"
        }
      ],
      "stateMutability": "view",
      "type": "function"
    },
    {
      "inputs": [],
      "name": "validationLogic",
      "outputs": [
        {
          "internalType": "contract ValidationLogic",
          "name": "",
          "type": "address"
        }
      ],
      "stateMutability": "view",
      "type": "function"
    },
    {
      "inputs": [
        {
          "internalType": "address",
          "name": "",
          "type": "address"
        }
      ],
      "name": "whitelistERC20",
      "outputs": [
        {
          "internalType": "bool",
          "name": "",
          "type": "bool"
        }
      ],
      "stateMutability": "view",
      "type": "function"
    }
  ],
  "bytecode": "0x60a0604052306080523480156200001557600080fd5b506200002062000026565b620000e8565b600054610100900460ff1615620000935760405162461bcd60e51b815260206004820152602760248201527f496e697469616c697a61626c653a20636f6e747261637420697320696e697469604482015266616c697a696e6760c81b606482015260840160405180910390fd5b60005460ff9081161015620000e6576000805460ff191660ff9081179091556040519081527f7f26b83ff96e1f2b6a682f133852f6798a09c465da95921460cefb38474024989060200160405180910390a15b565b6080516150fa620001206000396000818161119a015281816111da015281816112ea0152818161132a01526113a601526150fa6000f3fe60806040526004361061020d5760003560e01c8063024cad5914610212578063060d206e1461022757806309e30ae6146102475780632740c197146102675780632d35185d146102875780632dfcd86d146102c957806330c642f1146102e95780633659cfe61461030957806341e60970146103295780634b0a79da146103595780634f1ef2861461039c57806352d1902d146103af578063557d93bb146103d257806355c338aa1461044157806358c965fb1461046157806359d785e014610487578063627cdcb9146104a7578063715018a6146104bc57806371e6977e146104d1578063788269f2146104f25780637dd84718146105195780637e390cd31461053a5780637ecebe001461055a5780638076f00514610588578063845380a2146105b957806386bff828146105da5780638da5cb5b146106015780639b995f5c14610616578063a4c0b30614610637578063a5c881a01461064a578063aa2d59fd14610671578063b0e21e8a14610691578063b236a291146106a7578063b8ca3b83146106de578063d464e5bd146106f4578063d83e5f4d14610714578063de02d1701461072a578063de3401cb1461074b578063e104ae591461076b578063e8cbe6a91461079b578063e9d60245146107bb578063f2fde38b146107e2578063f5e95acb14610802578063f80971cc14610822578063fa5e429614610842578063fcdc422a14610873575b600080fd5b610225610220366004614039565b610893565b005b34801561023357600080fd5b50610225610242366004614105565b610e57565b34801561025357600080fd5b5061022561026236600461413e565b610eec565b34801561027357600080fd5b50610225610282366004614166565b610f67565b34801561029357600080fd5b5060fb546102ad90600160a01b900465ffffffffffff1681565b60405165ffffffffffff90911681526020015b60405180910390f35b3480156102d557600080fd5b506102256102e4366004614105565b6110c5565b3480156102f557600080fd5b5061022561030436600461419e565b611126565b34801561031557600080fd5b506102256103243660046141cc565b611190565b34801561033557600080fd5b506103496103443660046141e9565b611258565b60405190151581526020016102c0565b34801561036557600080fd5b5061038f61037436600461421d565b60fd602052600090815260409020546001600160a01b031681565b6040516102c09190614247565b6102256103aa366004614338565b6112e0565b3480156103bb57600080fd5b506103c4611399565b6040519081526020016102c0565b3480156103de57600080fd5b5061041a6103ed3660046141cc565b60ff602052600090815260409020546001600160a01b03811690600160a01b90046001600160601b031682565b604080516001600160a01b0390931683526001600160601b039091166020830152016102c0565b34801561044d57600080fd5b5061022561045c366004614387565b611447565b34801561046d57600080fd5b5060fb546102ad90600160d01b900465ffffffffffff1681565b34801561049357600080fd5b506102256104a23660046141cc565b6114d2565b3480156104b357600080fd5b506102256114fc565b3480156104c857600080fd5b50610225611559565b3480156104dd57600080fd5b506101355461038f906001600160a01b031681565b3480156104fe57600080fd5b50610101546102ad90600160a01b900465ffffffffffff1681565b34801561052557600080fd5b506101025461038f906001600160a01b031681565b34801561054657600080fd5b506102256105553660046141cc565b61156d565b34801561056657600080fd5b506103c46105753660046141cc565b6101346020526000908152604090205481565b34801561059457600080fd5b506103496105a33660046143c8565b6101326020526000908152604090205460ff1681565b3480156105c557600080fd5b506101005461038f906001600160a01b031681565b3480156105e657600080fd5b50610101546102ad90600160d01b900465ffffffffffff1681565b34801561060d57600080fd5b5061038f611598565b34801561062257600080fd5b506101015461038f906001600160a01b031681565b6102256106453660046143f2565b6115a7565b34801561065657600080fd5b50610102546102ad90600160a01b900465ffffffffffff1681565b34801561067d57600080fd5b5061022561068c3660046141e9565b611a34565b34801561069d57600080fd5b506103c460fc5481565b3480156106b357600080fd5b506106c76106c2366004614463565b611af1565b6040805192151583526020830191909152016102c0565b3480156106ea57600080fd5b506102ad6107d081565b34801561070057600080fd5b5061022561070f366004614387565b611b42565b34801561072057600080fd5b506102ad61271081565b34801561073657600080fd5b506101365461038f906001600160a01b031681565b34801561075757600080fd5b506102256107663660046141cc565b611d27565b34801561077757600080fd5b506103496107863660046141cc565b60fe6020526000908152604090205460ff1681565b3480156107a757600080fd5b506102256107b63660046141cc565b611d52565b3480156107c757600080fd5b50610102546102ad90600160d01b900465ffffffffffff1681565b3480156107ee57600080fd5b506102256107fd3660046141cc565b611d7d565b34801561080e57600080fd5b5061022561081d3660046144bf565b611df3565b34801561082e57600080fd5b5060fb5461038f906001600160a01b031681565b34801561084e57600080fd5b5061034961085d3660046141cc565b6101376020526000908152604090205460ff1681565b34801561087f57600080fd5b5061022561088e3660046141e9565b61203d565b61089b612130565b600061092b866040518060600160405280876000600281106108bf576108bf61457b565b6020020160208101906108d29190614591565b60ff168152863560208201526040018560005b602002013581525061013460008a600001602081019061090591906141cc565b6001600160a01b03166001600160a01b0316815260200190815260200160002054612189565b9050600061097e866040518060600160405280886001600281106109515761095161457b565b6020020160208101906109649190614591565b60ff168152602088810135908201526040018660016108e5565b905061098d60208801886141cc565b6001600160a01b0316336001600160a01b031614806109c957506109b460208701876141cc565b6001600160a01b0316336001600160a01b0316145b806109e45750336000908152610137602052604090205460ff165b610a095760405162461bcd60e51b8152600401610a00906145ac565b60405180910390fd5b61013554604051630e48bbab60e11b81526001600160a01b0390911690631c91775690610a41908a908a903390600090600401614875565b602060405180830381865afa158015610a5e573d6000803e3d6000fd5b505050506040513d601f19601f82011682018060405250810190610a8291906148bc565b610a8b57600080fd5b6000818152610132602090815260408083208054600160ff1991821681179092558685529184208054909216179055610acf90610aca908901896148d9565b6121b4565b8015610aeb5750610aeb610ae660208a018a6148d9565b612227565b610b2857610aff610aca60208a018a6148d9565b8015610b165750610b16610ae660208901896148d9565b610b21576004610b2b565b6003610b2b565b60025b905060005b610b3d60208901896148d9565b9050811015610c5f57610c576040518061010001604052808b610100016020810190610b699190614922565b6002811115610b7a57610b7a614778565b81526020018a8060200190610b8f91906148d9565b85818110610b9f57610b9f61457b565b9050602002810190610bb1919061493d565b610bba90614a0e565b8152602090810190610bce908c018c6141cc565b6001600160a01b03168152602090810190610beb908d018d6141cc565b6001600160a01b03168152600060208201526040016003856004811115610c1457610c14614778565b148152602090810190610c29908d018d6148d9565b610c3291614a1a565b8152602001610c4760608d0160408e016141cc565b6001600160a01b03169052612306565b600101610b30565b5060005b610c7060208a018a6148d9565b9050811015610d6457610d5c6040518061010001604052808b610100016020810190610c9c9190614922565b6002811115610cad57610cad614778565b81526020018b8060200190610cc291906148d9565b85818110610cd257610cd261457b565b9050602002810190610ce4919061493d565b610ced90614a0e565b8152602090810190610d01908d018d6141cc565b6001600160a01b03168152602090810190610d1e908c018c6141cc565b6001600160a01b03168152600060208201526040016002856004811115610d4757610d47614778565b148152602090810190610c29908c018c6148d9565b600101610c63565b50604051600090339047908381818185875af1925050503d8060008114610da7576040519150601f19603f3d011682016040523d82523d6000602084013e610dac565b606091505b5050905080610dba57600080fd5b6101365460405163cb4261ad60e01b81526001600160a01b039091169063cb4261ad90610df790879087908e908e908e908e908e90600401614a9d565b6020604051808303816000875af1158015610e16573d6000803e3d6000fd5b505050506040513d601f19601f82011682018060405250810190610e3a91906148bc565b610e4357600080fd5b50505050610e5060018055565b5050505050565b610e5f612cb7565b6001600160a01b038216600090815260fe602052604090205481151560ff909116151503610e8c57600080fd5b6001600160a01b038216600081815260fe6020908152604091829020805460ff191685151590811790915591519182527f3f50d04114467f3ca25c50f1540e2864f8a852c0380bbbbb603ebfda10b5baf291015b60405180910390a25050565b610ef4612cb7565b6127108165ffffffffffff161115610f0b57600080fd5b61010180546001600160d01b0316600160d01b65ffffffffffff8416908102919091179091556040519081527f27e2043ec931e1e2f804d7bb93bc32d65f1c61974b8f5cf32da26700ccf54ec99060200160405180910390a150565b610f6f612cb7565b6107d0811115610f7e57600080fd5b81600003610f905760fc819055611048565b81600103610fc057610101805465ffffffffffff60a01b1916600160a01b65ffffffffffff841602179055611048565b81600203610ff057610102805465ffffffffffff60a01b1916600160a01b65ffffffffffff841602179055611048565b8160030361101d5761010280546001600160d01b0316600160d01b65ffffffffffff841602179055611048565b816004036110485760fb805465ffffffffffff60a01b1916600160a01b65ffffffffffff8416021790555b60fc54610101546101025460fb5460408051948552600160a01b9384900465ffffffffffff9081166020870152848404811686830152600160d01b90930483166060860152929004166080830152517fa2528eaad8834557bcd81ec0e307332fa102293a843f18b4724c0751a6b3344b9181900360a00190a15050565b6110cd612cb7565b6001600160a01b03821660008181526101376020908152604091829020805460ff191685151590811790915591519182527f7366c09787a3d71d2fc26524cf1304754a2fabd03044784a098b9854098c09d09101610ee0565b61112e612cb7565b6001600160e01b03198216600081815260fd60205260409081902080546001600160a01b0319166001600160a01b038516179055517f4b5aced933c0c9a88aeac3f0b3b72c5aaf75df8ebaf53225773248c4c315359390610ee0908490614247565b6001600160a01b037f00000000000000000000000000000000000000000000000000000000000000001630036111d85760405162461bcd60e51b8152600401610a0090614b26565b7f00000000000000000000000000000000000000000000000000000000000000006001600160a01b031661120a612d16565b6001600160a01b0316146112305760405162461bcd60e51b8152600401610a0090614b60565b61123981612d32565b6040805160008082526020820190925261125591839190612d3a565b50565b6000816080013560000361126b57600080fd5b60006112a8836101348361128260208401846141cc565b6001600160a01b03166001600160a01b0316815260200190815260200160002054612eaa565b60008181526101336020526040902054909150158015906112d957506000818152610132602052604090205460ff16155b9392505050565b6001600160a01b037f00000000000000000000000000000000000000000000000000000000000000001630036113285760405162461bcd60e51b8152600401610a0090614b26565b7f00000000000000000000000000000000000000000000000000000000000000006001600160a01b031661135a612d16565b6001600160a01b0316146113805760405162461bcd60e51b8152600401610a0090614b60565b61138982612d32565b61139582826001612d3a565b5050565b6000306001600160a01b037f000000000000000000000000000000000000000000000000000000000000000016146114345760405162461bcd60e51b815260206004820152603860248201527f555550535570677261646561626c653a206d757374206e6f742062652063616c6044820152771b1959081d1a1c9bdd59da0819195b1959d85d1958d85b1b60421b6064820152608401610a00565b5060008051602061508783398151915290565b61144f612cb7565b61271081111561145e57600080fd5b6001600160a01b03808416600081815260ff6020526040908190206001600160601b038516600160a01b02938616938417905551339291907f9966232dec326ad31fe3dac15757bae24e831ff83b601d234bbdf84e61c05fe8906114c59086815260200190565b60405180910390a4505050565b6114da612cb7565b60fb80546001600160a01b0319166001600160a01b0392909216919091179055565b336000908152610134602052604081208054829061151990614bb0565b918290555060405181815290915033907fa82a649bbd060c9099cd7b7326e2b0dc9e9af0836480e0f849dc9eaa79710b3b9060200160405180910390a250565b611561612cb7565b61156b6000612f68565b565b611575612cb7565b61010180546001600160a01b0319166001600160a01b0392909216919091179055565b60c9546001600160a01b031690565b6115af612130565b60006115eb8660405180606001604052808760ff1681526020018681526020018581525061013460008a600001602081019061090591906141cc565b6101355460405163726c458760e01b81529192506001600160a01b03169063726c45879061161f9089903390600401614bc9565b602060405180830381865afa15801561163c573d6000803e3d6000fd5b505050506040513d601f19601f8201168201806040525081019061166091906148bc565b61166957600080fd5b61167660208701876141cc565b6001600160a01b0316330361169d5760405162461bcd60e51b8152600401610a00906145ac565b60006116ac60608801886148d9565b9150600090506116bf60208901896148d9565b600085815261013260205260408120805460ff1916600117905590925090506116ee610aca60608b018b6148d9565b80156117055750611705610ae660208b018b6148d9565b61174257611719610aca60208b018b6148d9565b80156117305750611730610ae660608b018b6148d9565b61173b576004611745565b6001611745565b60005b905060005b83811015611902576118fa6040518061010001604052808c6101000160208101906117759190614922565b600281111561178657611786614778565b815260200161179860608e018e6148d9565b858181106117a8576117a861457b565b90506020028101906117ba919061493d565b6117c390614a0e565b8152602001336001600160a01b031681526020018c60000160208101906117ea91906141cc565b6001600160a01b0316815260200160028d61010001602081019061180e9190614922565b600281111561181f5761181f614778565b1461182b5760006118ae565b61013560009054906101000a90046001600160a01b03166001600160a01b0316636261aac98e6040518263ffffffff1660e01b815260040161186d9190614bf3565b602060405180830381865afa15801561188a573d6000803e3d6000fd5b505050506040513d601f19601f820116820180604052508101906118ae9190614c06565b815260200160018560048111156118c7576118c7614778565b1481526020908101906118dc908e018e6148d9565b6118e591614a1a565b8152602001610c4760608e0160408f016141cc565b60010161174a565b5060005b828110156119fa576119f26040518061010001604052808c6101000160208101906119319190614922565b600281111561194257611942614778565b81526020018c806020019061195791906148d9565b858181106119675761196761457b565b9050602002810190611979919061493d565b61198290614a0e565b8152602090810190611996908e018e6141cc565b6001600160a01b031681526020018b6001600160a01b0316815260200160008152602001600060048111156119cd576119cd614778565b8560048111156119df576119df614778565b1481526020016118dc60608e018e6148d9565b600101611906565b506101365460405163cfcf730360e01b81526001600160a01b039091169063cfcf730390610df79087908d908c908c908c90600401614c1f565b611a3c612130565b611a4960208201826141cc565b6001600160a01b0316336001600160a01b031614611a6657600080fd5b8060800135600003611a7757600080fd5b6000611a8e826101348361128260208401846141cc565b6000818152610132602052604090819020805460ff191660011790555190915033907f383447dfd40b32b73af346d8a498d4f50e93188330a1901d6c2add893d520e3290611adf9084815260200190565b60405180910390a25061125560018055565b60008080611b0a876101348361128260208401846141cc565b9050611b34818860405180606001604052808a60ff16815260200189815260200188815250612fba565b925090505b94509492505050565b612710811115611b5157600080fd5b6040516301ffc9a760e01b815263152a902d60e11b60048201526001600160a01b038416906301ffc9a790602401602060405180830381865afa158015611b9c573d6000803e3d6000fd5b505050506040513d601f19601f82011682018060405250810190611bc091906148bc565b15611bf85760405162461bcd60e51b8152602060048201526008602482015267216572633239383160c01b6044820152606401610a00565b826001600160a01b0316638da5cb5b6040518163ffffffff1660e01b8152600401602060405180830381865afa158015611c36573d6000803e3d6000fd5b505050506040513d601f19601f82011682018060405250810190611c5a9190614c58565b6001600160a01b0316336001600160a01b03161480611ceb5750826001600160a01b031663f851a4406040518163ffffffff1660e01b8152600401602060405180830381865afa158015611cb2573d6000803e3d6000fd5b505050506040513d601f19601f82011682018060405250810190611cd69190614c58565b6001600160a01b0316336001600160a01b0316145b61145e5760405162461bcd60e51b815260206004820152600d60248201526c10b7bbb732b91790b0b236b4b760991b6044820152606401610a00565b611d2f612cb7565b61010280546001600160a01b0319166001600160a01b0392909216919091179055565b611d5a612cb7565b61010080546001600160a01b0319166001600160a01b0392909216919091179055565b611d85612cb7565b6001600160a01b038116611dea5760405162461bcd60e51b815260206004820152602660248201527f4f776e61626c653a206e6577206f776e657220697320746865207a65726f206160448201526564647265737360d01b6064820152608401610a00565b61125581612f68565b600054610100900460ff1615808015611e135750600054600160ff909116105b80611e345750611e22306131a0565b158015611e34575060005460ff166001145b611e975760405162461bcd60e51b815260206004820152602e60248201527f496e697469616c697a61626c653a20636f6e747261637420697320616c72656160448201526d191e481a5b9a5d1a585b1a5e995960921b6064820152608401610a00565b6000805460ff191660011790558015611eba576000805461ff0019166101001790555b611ec26131af565b611eca6131de565b60fd60205260008051602061502783398151915280546001600160a01b03199081166001600160a01b038c8116919091179092556000805160206150a7833981519152805482168d841690811790915560008051602061500783398151915280548316909117905560016234de6560e21b03196000527f1ee8d6988a91bbf2f207f3146ffa20395b492ffa0c3d8ae2775d23c24acef4a3805482168b841617905560fb805482168a8416179055606460fc556101018054610100805484168b861617905561010280548416878616179055601960a11b6001600160d01b031990911687851617176001600160d01b031661027160d31b1790556101358054888416908316179055610136805492871692909116919091179055611feb613205565b8015612031576000805461ff0019169055604051600181527f7f26b83ff96e1f2b6a682f133852f6798a09c465da95921460cefb38474024989060200160405180910390a15b50505050505050505050565b612045612130565b61205260208201826141cc565b6001600160a01b0316336001600160a01b03161461206f57600080fd5b806080013560000361208057600080fd5b6000612097826101348361128260208401846141cc565b60008181526101336020526040902054909150156120b457600080fd5b61013460006120c660208501856141cc565b6001600160a01b031681526020810191909152604001600020546120eb906001614c75565b60008281526101336020908152604091829020929092555182815233917fec6590fa5d86db2e9b3ced5caae4916c2547c5a4bef3cb4bdf11f1d1995a8ee49101611adf565b6002600154036121825760405162461bcd60e51b815260206004820152601f60248201527f5265656e7472616e637947756172643a207265656e7472616e742063616c6c006044820152606401610a00565b6002600155565b6000806121968584612eaa565b90506121a3818686612fba565b6121ac57600080fd5b949350505050565b600060018214801561221057506339d690a360e11b83836000816121da576121da61457b565b90506020028101906121ec919061493d565b6121f6908061493d565b61220490602081019061421d565b6001600160e01b031916145b1561221d57506001612221565b5060005b92915050565b6000805b828110156122fc576322ba176160e21b84848381811061224d5761224d61457b565b905060200281019061225f919061493d565b612269908061493d565b61227790602081019061421d565b6001600160e01b031916148015906122db57506355575f5d60e11b8484838181106122a4576122a461457b565b90506020028101906122b6919061493d565b6122c0908061493d565b6122ce90602081019061421d565b6001600160e01b03191614155b156122ea576000915050612221565b806122f481614bb0565b91505061222b565b5060019392505050565b60fb546001600160a01b031661231b57600080fd5b60608101516001600160a01b031615801590612343575060408101516001600160a01b031615155b61234c57600080fd5b610102546040820151600091829161236d916001600160a01b031690613234565b61010154604085015191925060009161238f916001600160a01b031690613234565b60e08501519091506001600160a01b0316158015906123ea578280156123b25750815b6123ea5760405162461bcd60e51b81526020600482015260096024820152681d080859dad7db999d60ba1b6044820152606401610a00565b6002855160028111156123ff576123ff614778565b148015612418575060408501516001600160a01b031633145b156124295784608001519350612449565b8460200151602001518060200190518101906124459190614c88565b5093505b8360000361245657600080fd5b6000836124a7578261246a5760fc546124e1565b816124875761010154600160a01b900465ffffffffffff1661249a565b60fb54600160a01b900465ffffffffffff165b65ffffffffffff166124e1565b816124c45761010254600160a01b900465ffffffffffff166124d8565b61010254600160d01b900465ffffffffffff165b65ffffffffffff165b602087015151519091506001600160e01b031916632aa8a0a360e11b016125205761251b8660600151868860a001518960c0015185613330565b612c52565b602086015151516001600160e01b031916631d45e89f60e21b016129ef576000866020015160000151602001518060200190518101906125609190614c58565b6001600160a01b038116600090815260fe602052604090205490915060ff166125b55760405162461bcd60e51b81526020600482015260076024820152661d08085b1a5cdd60ca1b6044820152606401610a00565b60008760a00151156127f6578760c00151516001146125fe5760405162461bcd60e51b81526020600482015260056024820152643a103632b760d91b6044820152606401610a00565b6000805160206150478339815191526001600160e01b0319168860c0015160008151811061262e5761262e61457b565b602090810291909101015151516001600160e01b0319161461267b5760405162461bcd60e51b815260206004820152600660248201526574202137323160d01b6044820152606401610a00565b60008860c001516000815181106126945761269461457b565b602002602001015160000151602001518060200190518101906126b79190614cac565b50506001600160a01b03808216600090815260ff6020526040902054919250161580159061270c57506001600160a01b038116600090815260ff6020526040902054600160a01b90046001600160601b031615155b156127f4576001600160a01b038116600090815260ff60205260409020546127109061274890600160a01b90046001600160601b03168a614cef565b6127529190614d06565b6322ba176160e21b600090815260fd60209081526000805160206150278339815191525460408d8101516001600160a01b03878116865260ff9094529381902054905163776062c360e01b81529496509082169363776062c3936127c193899391929116908890600401614d28565b600060405180830381600087803b1580156127db57600080fd5b505af11580156127ef573d6000803e3d6000fd5b505050505b505b610100546000906001600160a01b038481169116146128155783612854565b6101015461271090859061283890600160d01b900465ffffffffffff1683614d52565b65ffffffffffff1661284a9190614cef565b6128549190614d06565b9050600061271082612866858c614d78565b6128709190614cef565b61287a9190614d06565b6322ba176160e21b60005260fd6020526000805160206150278339815191525460408c81015160fb54915163776062c360e01b81529394506001600160a01b039283169363776062c3936128d8938a93929116908790600401614d28565b600060405180830381600087803b1580156128f257600080fd5b505af1158015612906573d6000803e3d6000fd5b5050505060fd60007f8ae85d849167ff996c04040c44924fd364217285e4cad818292c7ac37c0a345b6001600160e01b0319166001600160e01b031916815260200190815260200160002060009054906101000a90046001600160a01b03166001600160a01b031663776062c3858c604001518d6060015185888f61298b9190614d78565b6129959190614d78565b6040518563ffffffff1660e01b81526004016129b49493929190614d28565b600060405180830381600087803b1580156129ce57600080fd5b505af11580156129e2573d6000803e3d6000fd5b5050505050505050612c52565b602086015151516001600160e01b0319166346296f5d60e11b01612b035760008087602001516000015160200151806020019051810190612a309190614cac565b509150915086600114612a6e5760405162461bcd60e51b8152600401610a00906020808252600490820152637420213160e01b604082015260600190565b6339d690a360e11b60005260fd6020526000805160206150a78339815191525460408981015160608b01519151637b84dc8360e11b81526001600160a01b039093169263f709b90692612aca9287929091908790600401614d28565b600060405180830381600087803b158015612ae457600080fd5b505af1158015612af8573d6000803e3d6000fd5b505050505050612c52565b602086015151516001600160e01b0319166301a3112760e61b01612bc35760008087602001516000015160200151806020019051810190612b449190614cac565b5063025ceed960e61b60005260fd6020526000805160206150078339815191525460408b81015160608d015191516345b3146d60e01b81526001600160a01b0380871660048301529182166024820152918116604483015260648201849052608482018c905293955091935091909116906345b3146d9060a401612aca565b6020808701805151516001600160e01b031916600090815260fd9092526040918290205490518289015160608a0151935163b647b5ad60e01b81526001600160a01b039093169363b647b5ad93612c1f93929190600401614e27565b600060405180830381600087803b158015612c3957600080fd5b505af1158015612c4d573d6000803e3d6000fd5b505050505b85606001516001600160a01b031686604001516001600160a01b03167f4b63b2bb1a8fa9240debba9df851a32e45ad3adb17eb27e3a336f33afc2f06628860200151604051612ca19190614e5a565b60405180910390a3505050505050565b60018055565b33612cc0611598565b6001600160a01b03161461156b5760405162461bcd60e51b815260206004820181905260248201527f4f776e61626c653a2063616c6c6572206973206e6f7420746865206f776e65726044820152606401610a00565b600080516020615087833981519152546001600160a01b031690565b611255612cb7565b7f4910fdfa16fed3260ed0e7147f7cc6da11a60208b5b9406d12a635614ffd91435460ff1615612d7257612d6d836136c4565b505050565b826001600160a01b03166352d1902d6040518163ffffffff1660e01b8152600401602060405180830381865afa925050508015612dcc575060408051601f3d908101601f19168201909252612dc991810190614c06565b60015b612e2f5760405162461bcd60e51b815260206004820152602e60248201527f45524331393637557067726164653a206e657720696d706c656d656e7461746960448201526d6f6e206973206e6f74205555505360901b6064820152608401610a00565b6000805160206150878339815191528114612e9e5760405162461bcd60e51b815260206004820152602960248201527f45524331393637557067726164653a20756e737570706f727465642070726f786044820152681a58589b195555525160ba1b6064820152608401610a00565b50612d6d83838361375e565b60007f053e8fcac9e5a58b5314ab8c05ca306e62ac17965611b1a3dec48e658d2f49b3612eda60208501856141cc565b612eef612eea60208701876148d9565b613789565b612eff60608701604088016141cc565b612f0f612eea60608901896148d9565b608088013560a089013560c08a013589612f316101208d016101008e01614922565b604051602001612f4a9a99989796959493929190614e6d565b60405160208183030381529060405280519060200120905092915050565b60c980546001600160a01b038381166001600160a01b0319831681179093556040519116919082907f8be0079c531659141344cd1fd0a4f28419497f9722a3daafe3b4186f6b6457e090600090a35050565b6000612fc583613867565b6000848152610132602052604090205460ff1615612fe5575060006112d9565b60008481526101336020526040902054801561303a57610134600061300d60208701876141cc565b6001600160a01b03168152602081019190915260400160002054613032906001614c75565b1490506112d9565b6000613045866139f5565b905061305460208601866141cc565b6001600160a01b031661307582866000015187602001518860400151613aa6565b6001600160a01b03160361308e576001925050506112d9565b6130ac61309e60208701876141cc565b6001600160a01b03166131a0565b1561319457630b135d3f60e11b6130c660208701876141cc565b6001600160a01b0316631626ba7e836130ec886000015189602001518a60400151613ace565b6040518363ffffffff1660e01b8152600401613109929190614ed4565b602060405180830381865afa158015613126573d6000803e3d6000fd5b505050506040513d601f19601f8201168201806040525081019061314a9190614eed565b6001600160e01b031916146131895760405162461bcd60e51b8152602060048201526005602482015264213132373160d81b6044820152606401610a00565b6001925050506112d9565b50600095945050505050565b6001600160a01b03163b151590565b600054610100900460ff166131d65760405162461bcd60e51b8152600401610a0090614f0a565b61156b613b0e565b600054610100900460ff1661156b5760405162461bcd60e51b8152600401610a0090614f0a565b600054610100900460ff1661322c5760405162461bcd60e51b8152600401610a0090614f0a565b61156b613b35565b6000806000846001600160a01b03167f70a08231b98ef4ca268c9cc3f6b4590e4bfec28280db06bb5d45e689f2a360be856040516024016132759190614247565b60408051601f198184030181529181526020820180516001600160e01b03166001600160e01b03199094169390931790925290516132b39190614f55565b600060405180830381855afa9150503d80600081146132ee576040519150601f19603f3d011682016040523d82523d6000602084013e6132f3565b606091505b509150915081801561330757506020815110155b61331057600080fd5b6000818060200190518101906133269190614c06565b1195945050505050565b600083156135925782516001146133a25760405162461bcd60e51b815260206004820152603060248201527f4e46542e636f6d3a20526f79616c7479206e6f7420737570706f72746564206660448201526f6f72206d756c7469706c65204e46547360801b6064820152608401610a00565b6000805160206150478339815191526001600160e01b031916836000815181106133ce576133ce61457b565b602090810291909101015151516001600160e01b0319161461341c5760405162461bcd60e51b81526020600482015260076024820152667465202137323160c81b6044820152606401610a00565b6000836000815181106134315761343161457b565b602002602001015160000151602001518060200190518101906134549190614cac565b50506001600160a01b03808216600090815260ff602052604090205491925016158015906134a957506001600160a01b038116600090815260ff6020526040902054600160a01b90046001600160601b031615155b15613590576001600160a01b038116600090815260ff6020526040902054612710906134e590600160a01b90046001600160601b031688614cef565b6134ef9190614d06565b6001600160a01b03828116600090815260ff6020526040808220549051939550909291169084908381818185875af1925050503d806000811461354e576040519150601f19603f3d011682016040523d82523d6000602084013e613553565b606091505b505090508061358e5760405162461bcd60e51b81526020600482015260076024820152667465202172747960c81b6044820152606401610a00565b505b505b6000612710836135a28489614d78565b6135ac9190614cef565b6135b69190614d06565b60fb546040519192506000916001600160a01b039091169083908381818185875af1925050503d8060008114613608576040519150601f19603f3d011682016040523d82523d6000602084013e61360d565b606091505b505090506000886001600160a01b031683858a61362a9190614d78565b6136349190614d78565b604051600081818185875af1925050503d8060008114613670576040519150601f19603f3d011682016040523d82523d6000602084013e613675565b606091505b505090508180156136835750805b6136b95760405162461bcd60e51b81526020600482015260076024820152660e8ca4042cae8d60cb1b6044820152606401610a00565b505050505050505050565b6136cd816131a0565b61372f5760405162461bcd60e51b815260206004820152602d60248201527f455243313936373a206e657720696d706c656d656e746174696f6e206973206e60448201526c1bdd08184818dbdb9d1c9858dd609a1b6064820152608401610a00565b60008051602061508783398151915280546001600160a01b0319166001600160a01b0392909216919091179055565b61376783613b65565b6000825111806137745750805b15612d6d576137838383613ba5565b50505050565b600080826001600160401b038111156137a4576137a461425b565b6040519080825280602002602001820160405280156137cd578160200160208202803683370190505b50905060005b83811015613836576138078585838181106137f0576137f061457b565b9050602002810190613802919061493d565b613c97565b8282815181106138195761381961457b565b60209081029190910101528061382e81614bb0565b9150506137d3565b50806040516020016138489190614f67565b6040516020818303038152906040528051906020012091505092915050565b600061387660208301836141cc565b6001600160a01b0316036138b55760405162461bcd60e51b815260206004820152600660248201526506c733a2021360d41b6044820152606401610a00565b60a081013515806138c95750428160a00135105b6139095760405162461bcd60e51b81526020600482015260116024820152701b1cce881cdd185c9d08195e1c1a5c9959607a1b6044820152606401610a00565b60c0810135158061391d5750428160c00135115b61395b5760405162461bcd60e51b815260206004820152600f60248201526e1b1cce88195b9908195e1c1a5c9959608a1b6044820152606401610a00565b61396860208201826148d9565b90506000036139a85760405162461bcd60e51b815260206004820152600c60248201526b06c733a206d616b65203e20360a41b6044820152606401610a00565b6139b560608201826148d9565b90506000036112555760405162461bcd60e51b815260206004820152600c60248201526b06c733a2074616b65203e20360a41b6044820152606401610a00565b6000612221613aa0604080517f8b73c3c69bb8fe3d512ecc4cf759cc79239f7b179b0ffacaa9a75d522b39400f6020808301919091527f90a3ffbb9d8bd8316ef406c0da0040e27b327b14a59f0e34ae3835bb3661e0cb828401527fc89efdaa54c0f20c7adf612882df0950f5a951637e0307cdcb4c672f298b8bc660608301524660808301523060a0808401919091528351808403909101815260c0909201909252805191012090565b83613d2c565b6000806000613ab787878787613d53565b91509150613ac481613e0a565b5095945050505050565b604080516041808252608082019092526060916000919060208201818036833750505060208101949094525050604082015260f89190911b606082015290565b600054610100900460ff16612cb15760405162461bcd60e51b8152600401610a0090614f0a565b600054610100900460ff16613b5c5760405162461bcd60e51b8152600401610a0090614f0a565b61156b33612f68565b613b6e816136c4565b6040516001600160a01b038216907fbc7cd75a20ee27fd9adebab32041f755214dbc6bffa90cc0225b39da2e5c2d3b90600090a250565b6060613bb0836131a0565b613c0b5760405162461bcd60e51b815260206004820152602660248201527f416464726573733a2064656c65676174652063616c6c20746f206e6f6e2d636f6044820152651b9d1c9858dd60d21b6064820152608401610a00565b600080846001600160a01b031684604051613c269190614f55565b600060405180830381855af49150503d8060008114613c61576040519150601f19603f3d011682016040523d82523d6000602084013e613c66565b606091505b5091509150613c8e82826040518060600160405280602781526020016150c760279139613f4f565b95945050505050565b60007f2aad2e180346f7a007f74f42e3ec19ab976dc5dbb7ac4cdb44e7b9fc99014b3c613ccc613cc7848061493d565b613f68565b613cd96020850185614f9d565b604051613ce7929190614fe3565b604051908190038120613d0f9392916020019283526020830191909152604082015260600190565b604051602081830303815290604052805190602001209050919050565b60405161190160f01b60208201526022810183905260428101829052600090606201612f4a565b6000806fa2a8918ca85bafe22016d0b997e4df60600160ff1b03831115613d805750600090506003611b39565b6040805160008082526020820180845289905260ff881692820192909252606081018690526080810185905260019060a0016020604051602081039080840390855afa158015613dd4573d6000803e3d6000fd5b5050604051601f1901519150506001600160a01b038116613dfd57600060019250925050611b39565b9660009650945050505050565b6000816004811115613e1e57613e1e614778565b03613e265750565b6001816004811115613e3a57613e3a614778565b03613e825760405162461bcd60e51b815260206004820152601860248201527745434453413a20696e76616c6964207369676e617475726560401b6044820152606401610a00565b6002816004811115613e9657613e96614778565b03613ee35760405162461bcd60e51b815260206004820152601f60248201527f45434453413a20696e76616c6964207369676e6174757265206c656e677468006044820152606401610a00565b6003816004811115613ef757613ef7614778565b036112555760405162461bcd60e51b815260206004820152602260248201527f45434453413a20696e76616c6964207369676e6174757265202773272076616c604482015261756560f01b6064820152608401610a00565b60608315613f5e5750816112d9565b6112d98383613fe5565b60007f452a0dc408cb0d27ffc3b3caff933a5208040a53a9dbecd8d89cad2c0d40e00c613f98602084018461421d565b613fa56020850185614f9d565b604051613fb3929190614fe3565b604051908190038120613d0f9392916020019283526001600160e01b0319919091166020830152604082015260600190565b815115613ff55781518083602001fd5b8060405162461bcd60e51b8152600401610a009190614ff3565b6000610120828403121561402257600080fd5b50919050565b806040810183101561222157600080fd5b6000806000806000610100868803121561405257600080fd5b85356001600160401b038082111561406957600080fd5b61407589838a0161400f565b9650602088013591508082111561408b57600080fd5b506140988882890161400f565b9450506140a88760408801614028565b92506140b78760808801614028565b91506140c68760c08801614028565b90509295509295909350565b6001600160a01b038116811461125557600080fd5b80356140f2816140d2565b919050565b801515811461125557600080fd5b6000806040838503121561411857600080fd5b8235614123816140d2565b91506020830135614133816140f7565b809150509250929050565b60006020828403121561415057600080fd5b813565ffffffffffff811681146112d957600080fd5b6000806040838503121561417957600080fd5b50508035926020909101359150565b6001600160e01b03198116811461125557600080fd5b600080604083850312156141b157600080fd5b82356141bc81614188565b91506020830135614133816140d2565b6000602082840312156141de57600080fd5b81356112d9816140d2565b6000602082840312156141fb57600080fd5b81356001600160401b0381111561421157600080fd5b6121ac8482850161400f565b60006020828403121561422f57600080fd5b81356112d981614188565b6001600160a01b03169052565b6001600160a01b0391909116815260200190565b634e487b7160e01b600052604160045260246000fd5b604080519081016001600160401b03811182821017156142935761429361425b565b60405290565b604051601f8201601f191681016001600160401b03811182821017156142c1576142c161425b565b604052919050565b600082601f8301126142da57600080fd5b81356001600160401b038111156142f3576142f361425b565b614306601f8201601f1916602001614299565b81815284602083860101111561431b57600080fd5b816020850160208301376000918101602001919091529392505050565b6000806040838503121561434b57600080fd5b8235614356816140d2565b915060208301356001600160401b0381111561437157600080fd5b61437d858286016142c9565b9150509250929050565b60008060006060848603121561439c57600080fd5b83356143a7816140d2565b925060208401356143b7816140d2565b929592945050506040919091013590565b6000602082840312156143da57600080fd5b5035919050565b803560ff811681146140f257600080fd5b600080600080600060a0868803121561440a57600080fd5b85356001600160401b0381111561442057600080fd5b61442c8882890161400f565b955050602086013561443d816140d2565b935061444b604087016143e1565b94979396509394606081013594506080013592915050565b6000806000806080858703121561447957600080fd5b84356001600160401b0381111561448f57600080fd5b61449b8782880161400f565b9450506144aa602086016143e1565b93969395505050506040820135916060013590565b60008060008060008060008060006101208a8c0312156144de57600080fd5b89356144e9816140d2565b985060208a01356144f9816140d2565b975060408a0135614509816140d2565b965060608a0135614519816140d2565b955060808a0135614529816140d2565b945060a08a0135614539816140d2565b935060c08a0135614549816140d2565b925060e08a0135614559816140d2565b91506101008a013561456a816140d2565b809150509295985092959850929598565b634e487b7160e01b600052603260045260246000fd5b6000602082840312156145a357600080fd5b6112d9826143e1565b60208082526006908201526510b6b0b5b2b960d11b604082015260600190565b6000808335601e198436030181126145e357600080fd5b83016020810192503590506001600160401b0381111561460257600080fd5b8060051b360382131561461457600080fd5b9250929050565b60008235603e1983360301811261463157600080fd5b90910192915050565b6000808335601e1984360301811261465157600080fd5b83016020810192503590506001600160401b0381111561467057600080fd5b80360382131561461457600080fd5b81835281816020850137506000828201602090810191909152601f909101601f19169091010190565b81835260006020808501808196508560051b810191508460005b8781101561475c5782840389526146d9828861461b565b60406146e5828361461b565b81875280356146f381614188565b6001600160e01b0319168783015261470d8189018261463a565b915082606089015261472360808901838361467f565b925050506147338783018361463a565b92508682038888015261474782848361467f565b9b88019b9650505091850191506001016146c2565b5091979650505050505050565b8035600381106140f257600080fd5b634e487b7160e01b600052602160045260246000fd5b600381106147ac57634e487b7160e01b600052602160045260246000fd5b9052565b60006101206147c7846147c2856140e7565b61423a565b6147d460208401846145cc565b8260208701526147e783870182846146a8565b925050506147f7604084016140e7565b614804604086018261423a565b5061481260608401846145cc565b85830360608701526148258382846146a8565b925050506080830135608085015260a083013560a085015260c083013560c085015260e083013560e085015261010061485f818501614769565b61486b8287018261478e565b5090949350505050565b60808152600061488860808301876147b0565b828103602084015261489a81876147b0565b6001600160a01b03959095166040840152505090151560609091015292915050565b6000602082840312156148ce57600080fd5b81516112d9816140f7565b6000808335601e198436030181126148f057600080fd5b8301803591506001600160401b0382111561490a57600080fd5b6020019150600581901b360382131561461457600080fd5b60006020828403121561493457600080fd5b6112d982614769565b60008235603e1983360301811261495357600080fd5b9190910192915050565b60006040828403121561496f57600080fd5b614977614271565b905081356001600160401b038082111561499057600080fd5b90830190604082860312156149a457600080fd5b6149ac614271565b82356149b781614188565b81526020830135828111156149cb57600080fd5b6149d7878286016142c9565b6020830152508084525060208401359150808211156149f557600080fd5b50614a02848285016142c9565b60208301525092915050565b6000612221368361495d565b60006001600160401b0380841115614a3457614a3461425b565b8360051b6020614a45818301614299565b868152918501918181019036841115614a5d57600080fd5b865b84811015614a9157803586811115614a775760008081fd5b614a8336828b0161495d565b845250918301918301614a5f565b50979650505050505050565b600061014089835260208981850152816040850152614abe8285018a6147b0565b91508382036060850152614ad282896147b0565b92506080840191508660005b6002811015614b055760ff614af2836143e1565b1684529282019290820190600101614ade565b5050505060408460c084013760408361010084013798975050505050505050565b6020808252602c9082015260008051602061506783398151915260408201526b19195b1959d85d1958d85b1b60a21b606082015260800190565b6020808252602c9082015260008051602061506783398151915260408201526b6163746976652070726f787960a01b606082015260800190565b634e487b7160e01b600052601160045260246000fd5b600060018201614bc257614bc2614b9a565b5060010190565b604081526000614bdc60408301856147b0565b905060018060a01b03831660208301529392505050565b6020815260006112d960208301846147b0565b600060208284031215614c1857600080fd5b5051919050565b85815260a060208201526000614c3860a08301876147b0565b60ff95909516604083015250606081019290925260809091015292915050565b600060208284031215614c6a57600080fd5b81516112d9816140d2565b8082018082111561222157612221614b9a565b60008060408385031215614c9b57600080fd5b505080516020909101519092909150565b600080600060608486031215614cc157600080fd5b8351614ccc816140d2565b602085015160408601519194509250614ce4816140f7565b809150509250925092565b808202811582820484141761222157612221614b9a565b600082614d2357634e487b7160e01b600052601260045260246000fd5b500490565b6001600160a01b039485168152928416602084015292166040820152606081019190915260800190565b65ffffffffffff828116828216039080821115614d7157614d71614b9a565b5092915050565b8181038181111561222157612221614b9a565b60005b83811015614da6578181015183820152602001614d8e565b50506000910152565b60008151808452614dc7816020860160208601614d8b565b601f01601f19169290920160200192915050565b600081516040845263ffffffff60e01b81511660408501526020810151905060406060850152614e0e6080850182614daf565b905060208301518482036020860152613c8e8282614daf565b606081526000614e3a6060830186614ddb565b6001600160a01b0394851660208401529290931660409091015292915050565b6020815260006112d96020830184614ddb565b8a81526001600160a01b038a81166020830152604082018a9052881660608201526080810187905260a0810186905260c0810185905260e0810184905261010081018390526101408101614ec561012083018461478e565b9b9a5050505050505050505050565b8281526040602082015260006121ac6040830184614daf565b600060208284031215614eff57600080fd5b81516112d981614188565b6020808252602b908201527f496e697469616c697a61626c653a20636f6e7472616374206973206e6f74206960408201526a6e697469616c697a696e6760a81b606082015260800190565b60008251614953818460208701614d8b565b815160009082906020808601845b83811015614f9157815185529382019390820190600101614f75565b50929695505050505050565b6000808335601e19843603018112614fb457600080fd5b8301803591506001600160401b03821115614fce57600080fd5b60200191503681900382131561461457600080fd5b8183823760009101908152919050565b6020815260006112d96020830184614daf56fe1b4fd1926e092ddaef9aa922d056d5815b6559e4908d6bb7d62ea36b2c427a4f921df7b0321dd1bf65149d117c2c67041e8c6324b771bc3dbd980f5e1e3ac04673ad2146b3d3a286642c794379d750360a2d53a3459a11b3e5d6cc900f55f44a46756e6374696f6e206d7573742062652063616c6c6564207468726f75676820360894a13ba1a3210667c828492db98dca3e2076cc3735a920a3ca505d382bbc796a154e501d32bdd038be045a22853c24b7287d77a845ce5e321f4b7589e64f416464726573733a206c6f772d6c6576656c2064656c65676174652063616c6c206661696c6564a164736f6c6343000811000a",
  "linkReferences": {},
  "deployedLinkReferences": {}
}