{
    "_format": "hh-sol-artifact-1",
    "contractName": "NftMarketplace",
    "sourceName": "contracts/marketplace/NftMarketplace.sol",
    "abi": [
        {
            "inputs": [],
            "stateMutability": "nonpayable",
            "type": "constructor"
        },
        {
            "anonymous": false,
            "inputs": [
                {
                    "indexed": false,
                    "internalType": "address",
                    "name": "previousAdmin",
                    "type": "address"
                },
                {
                    "indexed": false,
                    "internalType": "address",
                    "name": "newAdmin",
                    "type": "address"
                }
            ],
            "name": "AdminChanged",
            "type": "event"
        },
        {
            "anonymous": false,
            "inputs": [
                {
                    "indexed": false,
                    "internalType": "bytes32",
                    "name": "structHash",
                    "type": "bytes32"
                },
                {
                    "indexed": true,
                    "internalType": "address",
                    "name": "maker",
                    "type": "address"
                }
            ],
            "name": "Approval",
            "type": "event"
        },
        {
            "anonymous": false,
            "inputs": [
                {
                    "indexed": true,
                    "internalType": "address",
                    "name": "beacon",
                    "type": "address"
                }
            ],
            "name": "BeaconUpgraded",
            "type": "event"
        },
        {
            "anonymous": false,
            "inputs": [
                {
                    "indexed": false,
                    "internalType": "bytes32",
                    "name": "structHash",
                    "type": "bytes32"
                },
                {
                    "indexed": true,
                    "internalType": "address",
                    "name": "maker",
                    "type": "address"
                }
            ],
            "name": "Cancel",
            "type": "event"
        },
        {
            "anonymous": false,
            "inputs": [
                {
                    "indexed": true,
                    "internalType": "address",
                    "name": "aggregator",
                    "type": "address"
                },
                {
                    "indexed": false,
                    "internalType": "bool",
                    "name": "status",
                    "type": "bool"
                }
            ],
            "name": "EditAggregator",
            "type": "event"
        },
        {
            "anonymous": false,
            "inputs": [
                {
                    "indexed": false,
                    "internalType": "uint48",
                    "name": "discount",
                    "type": "uint48"
                }
            ],
            "name": "FunTokenDiscount",
            "type": "event"
        },
        {
            "anonymous": false,
            "inputs": [
                {
                    "indexed": false,
                    "internalType": "uint8",
                    "name": "version",
                    "type": "uint8"
                }
            ],
            "name": "Initialized",
            "type": "event"
        },
        {
            "anonymous": false,
            "inputs": [
                {
                    "indexed": true,
                    "internalType": "address",
                    "name": "maker",
                    "type": "address"
                },
                {
                    "indexed": false,
                    "internalType": "uint256",
                    "name": "newNonce",
                    "type": "uint256"
                }
            ],
            "name": "NonceIncremented",
            "type": "event"
        },
        {
            "anonymous": false,
            "inputs": [
                {
                    "indexed": true,
                    "internalType": "address",
                    "name": "previousOwner",
                    "type": "address"
                },
                {
                    "indexed": true,
                    "internalType": "address",
                    "name": "newOwner",
                    "type": "address"
                }
            ],
            "name": "OwnershipTransferred",
            "type": "event"
        },
        {
            "anonymous": false,
            "inputs": [
                {
                    "indexed": false,
                    "internalType": "uint256",
                    "name": "publicFee",
                    "type": "uint256"
                },
                {
                    "indexed": false,
                    "internalType": "uint256",
                    "name": "profileFee",
                    "type": "uint256"
                }
            ],
            "name": "ProtocolFeeChange",
            "type": "event"
        },
        {
            "anonymous": false,
            "inputs": [
                {
                    "indexed": true,
                    "internalType": "bytes4",
                    "name": "assetType",
                    "type": "bytes4"
                },
                {
                    "indexed": false,
                    "internalType": "address",
                    "name": "proxy",
                    "type": "address"
                }
            ],
            "name": "ProxyChange",
            "type": "event"
        },
        {
            "anonymous": false,
            "inputs": [
                {
                    "indexed": true,
                    "internalType": "address",
                    "name": "token",
                    "type": "address"
                },
                {
                    "indexed": true,
                    "internalType": "address",
                    "name": "owner",
                    "type": "address"
                },
                {
                    "indexed": false,
                    "internalType": "uint256",
                    "name": "percent",
                    "type": "uint256"
                },
                {
                    "indexed": true,
                    "internalType": "address",
                    "name": "setter",
                    "type": "address"
                }
            ],
            "name": "RoyaltyInfoChange",
            "type": "event"
        },
        {
            "anonymous": false,
            "inputs": [
                {
                    "components": [
                        {
                            "components": [
                                {
                                    "internalType": "bytes4",
                                    "name": "assetClass",
                                    "type": "bytes4"
                                },
                                {
                                    "internalType": "bytes",
                                    "name": "data",
                                    "type": "bytes"
                                }
                            ],
                            "internalType": "struct LibAsset.AssetType",
                            "name": "assetType",
                            "type": "tuple"
                        },
                        {
                            "internalType": "bytes",
                            "name": "data",
                            "type": "bytes"
                        }
                    ],
                    "indexed": false,
                    "internalType": "struct LibAsset.Asset",
                    "name": "asset",
                    "type": "tuple"
                },
                {
                    "indexed": true,
                    "internalType": "address",
                    "name": "from",
                    "type": "address"
                },
                {
                    "indexed": true,
                    "internalType": "address",
                    "name": "to",
                    "type": "address"
                }
            ],
            "name": "Transfer",
            "type": "event"
        },
        {
            "anonymous": false,
            "inputs": [
                {
                    "indexed": true,
                    "internalType": "address",
                    "name": "implementation",
                    "type": "address"
                }
            ],
            "name": "Upgraded",
            "type": "event"
        },
        {
            "anonymous": false,
            "inputs": [
                {
                    "indexed": true,
                    "internalType": "address",
                    "name": "token",
                    "type": "address"
                },
                {
                    "indexed": false,
                    "internalType": "bool",
                    "name": "value",
                    "type": "bool"
                }
            ],
            "name": "WhitelistChange",
            "type": "event"
        },
        {
            "inputs": [],
            "name": "MAX_PROTOCOL_FEE",
            "outputs": [
                {
                    "internalType": "uint48",
                    "name": "",
                    "type": "uint48"
                }
            ],
            "stateMutability": "view",
            "type": "function"
        },
        {
            "inputs": [],
            "name": "MAX_ROYALTY",
            "outputs": [
                {
                    "internalType": "uint48",
                    "name": "",
                    "type": "uint48"
                }
            ],
            "stateMutability": "view",
            "type": "function"
        },
        {
            "inputs": [
                {
                    "internalType": "address",
                    "name": "",
                    "type": "address"
                }
            ],
            "name": "aggregator",
            "outputs": [
                {
                    "internalType": "bool",
                    "name": "",
                    "type": "bool"
                }
            ],
            "stateMutability": "view",
            "type": "function"
        },
        {
            "inputs": [
                {
                    "components": [
                        {
                            "internalType": "address",
                            "name": "maker",
                            "type": "address"
                        },
                        {
                            "components": [
                                {
                                    "components": [
                                        {
                                            "internalType": "bytes4",
                                            "name": "assetClass",
                                            "type": "bytes4"
                                        },
                                        {
                                            "internalType": "bytes",
                                            "name": "data",
                                            "type": "bytes"
                                        }
                                    ],
                                    "internalType": "struct LibAsset.AssetType",
                                    "name": "assetType",
                                    "type": "tuple"
                                },
                                {
                                    "internalType": "bytes",
                                    "name": "data",
                                    "type": "bytes"
                                }
                            ],
                            "internalType": "struct LibAsset.Asset[]",
                            "name": "makeAssets",
                            "type": "tuple[]"
                        },
                        {
                            "internalType": "address",
                            "name": "taker",
                            "type": "address"
                        },
                        {
                            "components": [
                                {
                                    "components": [
                                        {
                                            "internalType": "bytes4",
                                            "name": "assetClass",
                                            "type": "bytes4"
                                        },
                                        {
                                            "internalType": "bytes",
                                            "name": "data",
                                            "type": "bytes"
                                        }
                                    ],
                                    "internalType": "struct LibAsset.AssetType",
                                    "name": "assetType",
                                    "type": "tuple"
                                },
                                {
                                    "internalType": "bytes",
                                    "name": "data",
                                    "type": "bytes"
                                }
                            ],
                            "internalType": "struct LibAsset.Asset[]",
                            "name": "takeAssets",
                            "type": "tuple[]"
                        },
                        {
                            "internalType": "uint256",
                            "name": "salt",
                            "type": "uint256"
                        },
                        {
                            "internalType": "uint256",
                            "name": "start",
                            "type": "uint256"
                        },
                        {
                            "internalType": "uint256",
                            "name": "end",
                            "type": "uint256"
                        },
                        {
                            "internalType": "uint256",
                            "name": "nonce",
                            "type": "uint256"
                        },
                        {
                            "internalType": "enum LibSignature.AuctionType",
                            "name": "auctionType",
                            "type": "uint8"
                        }
                    ],
                    "internalType": "struct LibSignature.Order",
                    "name": "order",
                    "type": "tuple"
                }
            ],
            "name": "approveOrder_",
            "outputs": [],
            "stateMutability": "nonpayable",
            "type": "function"
        },
        {
            "inputs": [
                {
                    "components": [
                        {
                            "internalType": "address",
                            "name": "maker",
                            "type": "address"
                        },
                        {
                            "components": [
                                {
                                    "components": [
                                        {
                                            "internalType": "bytes4",
                                            "name": "assetClass",
                                            "type": "bytes4"
                                        },
                                        {
                                            "internalType": "bytes",
                                            "name": "data",
                                            "type": "bytes"
                                        }
                                    ],
                                    "internalType": "struct LibAsset.AssetType",
                                    "name": "assetType",
                                    "type": "tuple"
                                },
                                {
                                    "internalType": "bytes",
                                    "name": "data",
                                    "type": "bytes"
                                }
                            ],
                            "internalType": "struct LibAsset.Asset[]",
                            "name": "makeAssets",
                            "type": "tuple[]"
                        },
                        {
                            "internalType": "address",
                            "name": "taker",
                            "type": "address"
                        },
                        {
                            "components": [
                                {
                                    "components": [
                                        {
                                            "internalType": "bytes4",
                                            "name": "assetClass",
                                            "type": "bytes4"
                                        },
                                        {
                                            "internalType": "bytes",
                                            "name": "data",
                                            "type": "bytes"
                                        }
                                    ],
                                    "internalType": "struct LibAsset.AssetType",
                                    "name": "assetType",
                                    "type": "tuple"
                                },
                                {
                                    "internalType": "bytes",
                                    "name": "data",
                                    "type": "bytes"
                                }
                            ],
                            "internalType": "struct LibAsset.Asset[]",
                            "name": "takeAssets",
                            "type": "tuple[]"
                        },
                        {
                            "internalType": "uint256",
                            "name": "salt",
                            "type": "uint256"
                        },
                        {
                            "internalType": "uint256",
                            "name": "start",
                            "type": "uint256"
                        },
                        {
                            "internalType": "uint256",
                            "name": "end",
                            "type": "uint256"
                        },
                        {
                            "internalType": "uint256",
                            "name": "nonce",
                            "type": "uint256"
                        },
                        {
                            "internalType": "enum LibSignature.AuctionType",
                            "name": "auctionType",
                            "type": "uint8"
                        }
                    ],
                    "internalType": "struct LibSignature.Order",
                    "name": "sellOrder",
                    "type": "tuple"
                },
                {
                    "internalType": "uint8",
                    "name": "v",
                    "type": "uint8"
                },
                {
                    "internalType": "bytes32",
                    "name": "r",
                    "type": "bytes32"
                },
                {
                    "internalType": "bytes32",
                    "name": "s",
                    "type": "bytes32"
                }
            ],
            "name": "buyNow",
            "outputs": [],
            "stateMutability": "payable",
            "type": "function"
        },
        {
            "inputs": [
                {
                    "components": [
                        {
                            "internalType": "address",
                            "name": "maker",
                            "type": "address"
                        },
                        {
                            "components": [
                                {
                                    "components": [
                                        {
                                            "internalType": "bytes4",
                                            "name": "assetClass",
                                            "type": "bytes4"
                                        },
                                        {
                                            "internalType": "bytes",
                                            "name": "data",
                                            "type": "bytes"
                                        }
                                    ],
                                    "internalType": "struct LibAsset.AssetType",
                                    "name": "assetType",
                                    "type": "tuple"
                                },
                                {
                                    "internalType": "bytes",
                                    "name": "data",
                                    "type": "bytes"
                                }
                            ],
                            "internalType": "struct LibAsset.Asset[]",
                            "name": "makeAssets",
                            "type": "tuple[]"
                        },
                        {
                            "internalType": "address",
                            "name": "taker",
                            "type": "address"
                        },
                        {
                            "components": [
                                {
                                    "components": [
                                        {
                                            "internalType": "bytes4",
                                            "name": "assetClass",
                                            "type": "bytes4"
                                        },
                                        {
                                            "internalType": "bytes",
                                            "name": "data",
                                            "type": "bytes"
                                        }
                                    ],
                                    "internalType": "struct LibAsset.AssetType",
                                    "name": "assetType",
                                    "type": "tuple"
                                },
                                {
                                    "internalType": "bytes",
                                    "name": "data",
                                    "type": "bytes"
                                }
                            ],
                            "internalType": "struct LibAsset.Asset[]",
                            "name": "takeAssets",
                            "type": "tuple[]"
                        },
                        {
                            "internalType": "uint256",
                            "name": "salt",
                            "type": "uint256"
                        },
                        {
                            "internalType": "uint256",
                            "name": "start",
                            "type": "uint256"
                        },
                        {
                            "internalType": "uint256",
                            "name": "end",
                            "type": "uint256"
                        },
                        {
                            "internalType": "uint256",
                            "name": "nonce",
                            "type": "uint256"
                        },
                        {
                            "internalType": "enum LibSignature.AuctionType",
                            "name": "auctionType",
                            "type": "uint8"
                        }
                    ],
                    "internalType": "struct LibSignature.Order",
                    "name": "order",
                    "type": "tuple"
                }
            ],
            "name": "cancel",
            "outputs": [],
            "stateMutability": "nonpayable",
            "type": "function"
        },
        {
            "inputs": [
                {
                    "internalType": "bytes32",
                    "name": "",
                    "type": "bytes32"
                }
            ],
            "name": "cancelledOrFinalized",
            "outputs": [
                {
                    "internalType": "bool",
                    "name": "",
                    "type": "bool"
                }
            ],
            "stateMutability": "view",
            "type": "function"
        },
        {
            "inputs": [
                {
                    "internalType": "uint48",
                    "name": "_newProfile",
                    "type": "uint48"
                }
            ],
            "name": "changeProfileFee",
            "outputs": [],
            "stateMutability": "nonpayable",
            "type": "function"
        },
        {
            "inputs": [
                {
                    "internalType": "uint256",
                    "name": "_newPublic",
                    "type": "uint256"
                }
            ],
            "name": "changeProtocolFee",
            "outputs": [],
            "stateMutability": "nonpayable",
            "type": "function"
        },
        {
            "inputs": [
                {
                    "internalType": "address",
                    "name": "_aggregator",
                    "type": "address"
                },
                {
                    "internalType": "bool",
                    "name": "_status",
                    "type": "bool"
                }
            ],
            "name": "editAggregator",
            "outputs": [],
            "stateMutability": "nonpayable",
            "type": "function"
        },
        {
            "inputs": [
                {
                    "components": [
                        {
                            "internalType": "address",
                            "name": "maker",
                            "type": "address"
                        },
                        {
                            "components": [
                                {
                                    "components": [
                                        {
                                            "internalType": "bytes4",
                                            "name": "assetClass",
                                            "type": "bytes4"
                                        },
                                        {
                                            "internalType": "bytes",
                                            "name": "data",
                                            "type": "bytes"
                                        }
                                    ],
                                    "internalType": "struct LibAsset.AssetType",
                                    "name": "assetType",
                                    "type": "tuple"
                                },
                                {
                                    "internalType": "bytes",
                                    "name": "data",
                                    "type": "bytes"
                                }
                            ],
                            "internalType": "struct LibAsset.Asset[]",
                            "name": "makeAssets",
                            "type": "tuple[]"
                        },
                        {
                            "internalType": "address",
                            "name": "taker",
                            "type": "address"
                        },
                        {
                            "components": [
                                {
                                    "components": [
                                        {
                                            "internalType": "bytes4",
                                            "name": "assetClass",
                                            "type": "bytes4"
                                        },
                                        {
                                            "internalType": "bytes",
                                            "name": "data",
                                            "type": "bytes"
                                        }
                                    ],
                                    "internalType": "struct LibAsset.AssetType",
                                    "name": "assetType",
                                    "type": "tuple"
                                },
                                {
                                    "internalType": "bytes",
                                    "name": "data",
                                    "type": "bytes"
                                }
                            ],
                            "internalType": "struct LibAsset.Asset[]",
                            "name": "takeAssets",
                            "type": "tuple[]"
                        },
                        {
                            "internalType": "uint256",
                            "name": "salt",
                            "type": "uint256"
                        },
                        {
                            "internalType": "uint256",
                            "name": "start",
                            "type": "uint256"
                        },
                        {
                            "internalType": "uint256",
                            "name": "end",
                            "type": "uint256"
                        },
                        {
                            "internalType": "uint256",
                            "name": "nonce",
                            "type": "uint256"
                        },
                        {
                            "internalType": "enum LibSignature.AuctionType",
                            "name": "auctionType",
                            "type": "uint8"
                        }
                    ],
                    "internalType": "struct LibSignature.Order",
                    "name": "sellOrder",
                    "type": "tuple"
                },
                {
                    "components": [
                        {
                            "internalType": "address",
                            "name": "maker",
                            "type": "address"
                        },
                        {
                            "components": [
                                {
                                    "components": [
                                        {
                                            "internalType": "bytes4",
                                            "name": "assetClass",
                                            "type": "bytes4"
                                        },
                                        {
                                            "internalType": "bytes",
                                            "name": "data",
                                            "type": "bytes"
                                        }
                                    ],
                                    "internalType": "struct LibAsset.AssetType",
                                    "name": "assetType",
                                    "type": "tuple"
                                },
                                {
                                    "internalType": "bytes",
                                    "name": "data",
                                    "type": "bytes"
                                }
                            ],
                            "internalType": "struct LibAsset.Asset[]",
                            "name": "makeAssets",
                            "type": "tuple[]"
                        },
                        {
                            "internalType": "address",
                            "name": "taker",
                            "type": "address"
                        },
                        {
                            "components": [
                                {
                                    "components": [
                                        {
                                            "internalType": "bytes4",
                                            "name": "assetClass",
                                            "type": "bytes4"
                                        },
                                        {
                                            "internalType": "bytes",
                                            "name": "data",
                                            "type": "bytes"
                                        }
                                    ],
                                    "internalType": "struct LibAsset.AssetType",
                                    "name": "assetType",
                                    "type": "tuple"
                                },
                                {
                                    "internalType": "bytes",
                                    "name": "data",
                                    "type": "bytes"
                                }
                            ],
                            "internalType": "struct LibAsset.Asset[]",
                            "name": "takeAssets",
                            "type": "tuple[]"
                        },
                        {
                            "internalType": "uint256",
                            "name": "salt",
                            "type": "uint256"
                        },
                        {
                            "internalType": "uint256",
                            "name": "start",
                            "type": "uint256"
                        },
                        {
                            "internalType": "uint256",
                            "name": "end",
                            "type": "uint256"
                        },
                        {
                            "internalType": "uint256",
                            "name": "nonce",
                            "type": "uint256"
                        },
                        {
                            "internalType": "enum LibSignature.AuctionType",
                            "name": "auctionType",
                            "type": "uint8"
                        }
                    ],
                    "internalType": "struct LibSignature.Order",
                    "name": "buyOrder",
                    "type": "tuple"
                },
                {
                    "internalType": "uint8[2]",
                    "name": "v",
                    "type": "uint8[2]"
                },
                {
                    "internalType": "bytes32[2]",
                    "name": "r",
                    "type": "bytes32[2]"
                },
                {
                    "internalType": "bytes32[2]",
                    "name": "s",
                    "type": "bytes32[2]"
                }
            ],
            "name": "executeSwap",
            "outputs": [],
            "stateMutability": "payable",
            "type": "function"
        },
        {
            "inputs": [],
            "name": "funToken",
            "outputs": [
                {
                    "internalType": "address",
                    "name": "",
                    "type": "address"
                }
            ],
            "stateMutability": "view",
            "type": "function"
        },
        {
            "inputs": [],
            "name": "funTokenDiscount",
            "outputs": [
                {
                    "internalType": "uint48",
                    "name": "",
                    "type": "uint48"
                }
            ],
            "stateMutability": "view",
            "type": "function"
        },
        {
            "inputs": [],
            "name": "incrementNonce",
            "outputs": [],
            "stateMutability": "nonpayable",
            "type": "function"
        },
        {
            "inputs": [
                {
                    "internalType": "contract INftTransferProxy",
                    "name": "_transferProxy",
                    "type": "address"
                },
                {
                    "internalType": "contract IERC20TransferProxy",
                    "name": "_erc20TransferProxy",
                    "type": "address"
                },
                {
                    "internalType": "address",
                    "name": "_cryptoKittyProxy",
                    "type": "address"
                },
                {
                    "internalType": "address",
                    "name": "_stakingContract",
                    "type": "address"
                },
                {
                    "internalType": "address",
                    "name": "_funToken",
                    "type": "address"
                },
                {
                    "internalType": "contract ValidationLogic",
                    "name": "_validationLogic",
                    "type": "address"
                },
                {
                    "internalType": "contract MarketplaceEvent",
                    "name": "_marketplaceEvent",
                    "type": "address"
                },
                {
                    "internalType": "address",
                    "name": "_nftProfile",
                    "type": "address"
                }
            ],
            "name": "initialize",
            "outputs": [],
            "stateMutability": "nonpayable",
            "type": "function"
        },
        {
            "inputs": [],
            "name": "marketplaceEvent",
            "outputs": [
                {
                    "internalType": "contract MarketplaceEvent",
                    "name": "",
                    "type": "address"
                }
            ],
            "stateMutability": "view",
            "type": "function"
        },
        {
            "inputs": [
                {
                    "internalType": "address",
                    "name": "_token",
                    "type": "address"
                },
                {
                    "internalType": "bool",
                    "name": "_val",
                    "type": "bool"
                }
            ],
            "name": "modifyWhitelist",
            "outputs": [],
            "stateMutability": "nonpayable",
            "type": "function"
        },
        {
            "inputs": [],
            "name": "nftBuyContract",
            "outputs": [
                {
                    "internalType": "address",
                    "name": "",
                    "type": "address"
                }
            ],
            "stateMutability": "view",
            "type": "function"
        },
        {
            "inputs": [],
            "name": "nftProfile",
            "outputs": [
                {
                    "internalType": "address",
                    "name": "",
                    "type": "address"
                }
            ],
            "stateMutability": "view",
            "type": "function"
        },
        {
            "inputs": [
                {
                    "internalType": "address",
                    "name": "",
                    "type": "address"
                }
            ],
            "name": "nonces",
            "outputs": [
                {
                    "internalType": "uint256",
                    "name": "",
                    "type": "uint256"
                }
            ],
            "stateMutability": "view",
            "type": "function"
        },
        {
            "inputs": [
                {
                    "components": [
                        {
                            "internalType": "address",
                            "name": "maker",
                            "type": "address"
                        },
                        {
                            "components": [
                                {
                                    "components": [
                                        {
                                            "internalType": "bytes4",
                                            "name": "assetClass",
                                            "type": "bytes4"
                                        },
                                        {
                                            "internalType": "bytes",
                                            "name": "data",
                                            "type": "bytes"
                                        }
                                    ],
                                    "internalType": "struct LibAsset.AssetType",
                                    "name": "assetType",
                                    "type": "tuple"
                                },
                                {
                                    "internalType": "bytes",
                                    "name": "data",
                                    "type": "bytes"
                                }
                            ],
                            "internalType": "struct LibAsset.Asset[]",
                            "name": "makeAssets",
                            "type": "tuple[]"
                        },
                        {
                            "internalType": "address",
                            "name": "taker",
                            "type": "address"
                        },
                        {
                            "components": [
                                {
                                    "components": [
                                        {
                                            "internalType": "bytes4",
                                            "name": "assetClass",
                                            "type": "bytes4"
                                        },
                                        {
                                            "internalType": "bytes",
                                            "name": "data",
                                            "type": "bytes"
                                        }
                                    ],
                                    "internalType": "struct LibAsset.AssetType",
                                    "name": "assetType",
                                    "type": "tuple"
                                },
                                {
                                    "internalType": "bytes",
                                    "name": "data",
                                    "type": "bytes"
                                }
                            ],
                            "internalType": "struct LibAsset.Asset[]",
                            "name": "takeAssets",
                            "type": "tuple[]"
                        },
                        {
                            "internalType": "uint256",
                            "name": "salt",
                            "type": "uint256"
                        },
                        {
                            "internalType": "uint256",
                            "name": "start",
                            "type": "uint256"
                        },
                        {
                            "internalType": "uint256",
                            "name": "end",
                            "type": "uint256"
                        },
                        {
                            "internalType": "uint256",
                            "name": "nonce",
                            "type": "uint256"
                        },
                        {
                            "internalType": "enum LibSignature.AuctionType",
                            "name": "auctionType",
                            "type": "uint8"
                        }
                    ],
                    "internalType": "struct LibSignature.Order",
                    "name": "order",
                    "type": "tuple"
                }
            ],
            "name": "orderApproved",
            "outputs": [
                {
                    "internalType": "bool",
                    "name": "approved",
                    "type": "bool"
                }
            ],
            "stateMutability": "view",
            "type": "function"
        },
        {
            "inputs": [],
            "name": "owner",
            "outputs": [
                {
                    "internalType": "address",
                    "name": "",
                    "type": "address"
                }
            ],
            "stateMutability": "view",
            "type": "function"
        },
        {
            "inputs": [],
            "name": "profileFee",
            "outputs": [
                {
                    "internalType": "uint48",
                    "name": "",
                    "type": "uint48"
                }
            ],
            "stateMutability": "view",
            "type": "function"
        },
        {
            "inputs": [],
            "name": "protocolFee",
            "outputs": [
                {
                    "internalType": "uint256",
                    "name": "",
                    "type": "uint256"
                }
            ],
            "stateMutability": "view",
            "type": "function"
        },
        {
            "inputs": [],
            "name": "proxiableUUID",
            "outputs": [
                {
                    "internalType": "bytes32",
                    "name": "",
                    "type": "bytes32"
                }
            ],
            "stateMutability": "view",
            "type": "function"
        },
        {
            "inputs": [
                {
                    "internalType": "bytes4",
                    "name": "",
                    "type": "bytes4"
                }
            ],
            "name": "proxies",
            "outputs": [
                {
                    "internalType": "address",
                    "name": "",
                    "type": "address"
                }
            ],
            "stateMutability": "view",
            "type": "function"
        },
        {
            "inputs": [],
            "name": "renounceOwnership",
            "outputs": [],
            "stateMutability": "nonpayable",
            "type": "function"
        },
        {
            "inputs": [
                {
                    "internalType": "address",
                    "name": "",
                    "type": "address"
                }
            ],
            "name": "royaltyInfo",
            "outputs": [
                {
                    "internalType": "address",
                    "name": "owner",
                    "type": "address"
                },
                {
                    "internalType": "uint96",
                    "name": "percent",
                    "type": "uint96"
                }
            ],
            "stateMutability": "view",
            "type": "function"
        },
        {
            "inputs": [
                {
                    "internalType": "address",
                    "name": "_funToken",
                    "type": "address"
                }
            ],
            "name": "setFunToken",
            "outputs": [],
            "stateMutability": "nonpayable",
            "type": "function"
        },
        {
            "inputs": [
                {
                    "internalType": "uint48",
                    "name": "_discount",
                    "type": "uint48"
                }
            ],
            "name": "setFunTokenDiscount",
            "outputs": [],
            "stateMutability": "nonpayable",
            "type": "function"
        },
        {
            "inputs": [
                {
                    "internalType": "address",
                    "name": "_nftBuyContract",
                    "type": "address"
                }
            ],
            "name": "setNftBuyContract",
            "outputs": [],
            "stateMutability": "nonpayable",
            "type": "function"
        },
        {
            "inputs": [
                {
                    "internalType": "address",
                    "name": "_nftProfile",
                    "type": "address"
                }
            ],
            "name": "setNftProfile",
            "outputs": [],
            "stateMutability": "nonpayable",
            "type": "function"
        },
        {
            "inputs": [
                {
                    "internalType": "address",
                    "name": "nftContract",
                    "type": "address"
                },
                {
                    "internalType": "address",
                    "name": "recipient",
                    "type": "address"
                },
                {
                    "internalType": "uint256",
                    "name": "amount",
                    "type": "uint256"
                }
            ],
            "name": "setRoyalty",
            "outputs": [],
            "stateMutability": "nonpayable",
            "type": "function"
        },
        {
            "inputs": [
                {
                    "internalType": "address",
                    "name": "nftContract",
                    "type": "address"
                },
                {
                    "internalType": "address",
                    "name": "recipient",
                    "type": "address"
                },
                {
                    "internalType": "uint256",
                    "name": "amount",
                    "type": "uint256"
                }
            ],
            "name": "setRoyaltyOwnerAdmin",
            "outputs": [],
            "stateMutability": "nonpayable",
            "type": "function"
        },
        {
            "inputs": [
                {
                    "internalType": "bytes4",
                    "name": "assetType",
                    "type": "bytes4"
                },
                {
                    "internalType": "address",
                    "name": "proxy",
                    "type": "address"
                }
            ],
            "name": "setTransferProxy",
            "outputs": [],
            "stateMutability": "nonpayable",
            "type": "function"
        },
        {
            "inputs": [
                {
                    "internalType": "address",
                    "name": "newOwner",
                    "type": "address"
                }
            ],
            "name": "transferOwnership",
            "outputs": [],
            "stateMutability": "nonpayable",
            "type": "function"
        },
        {
            "inputs": [
                {
                    "internalType": "address",
                    "name": "newImplementation",
                    "type": "address"
                }
            ],
            "name": "upgradeTo",
            "outputs": [],
            "stateMutability": "nonpayable",
            "type": "function"
        },
        {
            "inputs": [
                {
                    "internalType": "address",
                    "name": "newImplementation",
                    "type": "address"
                },
                {
                    "internalType": "bytes",
                    "name": "data",
                    "type": "bytes"
                }
            ],
            "name": "upgradeToAndCall",
            "outputs": [],
            "stateMutability": "payable",
            "type": "function"
        },
        {
            "inputs": [
                {
                    "components": [
                        {
                            "internalType": "address",
                            "name": "maker",
                            "type": "address"
                        },
                        {
                            "components": [
                                {
                                    "components": [
                                        {
                                            "internalType": "bytes4",
                                            "name": "assetClass",
                                            "type": "bytes4"
                                        },
                                        {
                                            "internalType": "bytes",
                                            "name": "data",
                                            "type": "bytes"
                                        }
                                    ],
                                    "internalType": "struct LibAsset.AssetType",
                                    "name": "assetType",
                                    "type": "tuple"
                                },
                                {
                                    "internalType": "bytes",
                                    "name": "data",
                                    "type": "bytes"
                                }
                            ],
                            "internalType": "struct LibAsset.Asset[]",
                            "name": "makeAssets",
                            "type": "tuple[]"
                        },
                        {
                            "internalType": "address",
                            "name": "taker",
                            "type": "address"
                        },
                        {
                            "components": [
                                {
                                    "components": [
                                        {
                                            "internalType": "bytes4",
                                            "name": "assetClass",
                                            "type": "bytes4"
                                        },
                                        {
                                            "internalType": "bytes",
                                            "name": "data",
                                            "type": "bytes"
                                        }
                                    ],
                                    "internalType": "struct LibAsset.AssetType",
                                    "name": "assetType",
                                    "type": "tuple"
                                },
                                {
                                    "internalType": "bytes",
                                    "name": "data",
                                    "type": "bytes"
                                }
                            ],
                            "internalType": "struct LibAsset.Asset[]",
                            "name": "takeAssets",
                            "type": "tuple[]"
                        },
                        {
                            "internalType": "uint256",
                            "name": "salt",
                            "type": "uint256"
                        },
                        {
                            "internalType": "uint256",
                            "name": "start",
                            "type": "uint256"
                        },
                        {
                            "internalType": "uint256",
                            "name": "end",
                            "type": "uint256"
                        },
                        {
                            "internalType": "uint256",
                            "name": "nonce",
                            "type": "uint256"
                        },
                        {
                            "internalType": "enum LibSignature.AuctionType",
                            "name": "auctionType",
                            "type": "uint8"
                        }
                    ],
                    "internalType": "struct LibSignature.Order",
                    "name": "order",
                    "type": "tuple"
                },
                {
                    "internalType": "uint8",
                    "name": "v",
                    "type": "uint8"
                },
                {
                    "internalType": "bytes32",
                    "name": "r",
                    "type": "bytes32"
                },
                {
                    "internalType": "bytes32",
                    "name": "s",
                    "type": "bytes32"
                }
            ],
            "name": "validateOrder_",
            "outputs": [
                {
                    "internalType": "bool",
                    "name": "",
                    "type": "bool"
                },
                {
                    "internalType": "bytes32",
                    "name": "",
                    "type": "bytes32"
                }
            ],
            "stateMutability": "view",
            "type": "function"
        },
        {
            "inputs": [],
            "name": "validationLogic",
            "outputs": [
                {
                    "internalType": "contract ValidationLogic",
                    "name": "",
                    "type": "address"
                }
            ],
            "stateMutability": "view",
            "type": "function"
        },
        {
            "inputs": [
                {
                    "internalType": "address",
                    "name": "",
                    "type": "address"
                }
            ],
            "name": "whitelistERC20",
            "outputs": [
                {
                    "internalType": "bool",
                    "name": "",
                    "type": "bool"
                }
            ],
            "stateMutability": "view",
            "type": "function"
        }
    ],
    "bytecode": "0x60a0604052306080523480156200001557600080fd5b506200002062000026565b620000e8565b600054610100900460ff1615620000935760405162461bcd60e51b815260206004820152602760248201527f496e697469616c697a61626c653a20636f6e747261637420697320696e697469604482015266616c697a696e6760c81b606482015260840160405180910390fd5b60005460ff9081161015620000e6576000805460ff191660ff9081179091556040519081527f7f26b83ff96e1f2b6a682f133852f6798a09c465da95921460cefb38474024989060200160405180910390a15b565b608051614beb6200012060003960008181610ef701528181610f37015281816110470152818161108701526111030152614beb6000f3fe6080604052600436106101d65760003560e01c8063024cad59146101db578063060d206e146101f057806309e30ae61461021057806319e2232e146102305780632dfcd86d1461025057806330c642f1146102705780633659cfe61461029057806341e60970146102b05780634b0a79da146102e55780634f1ef2861461032857806352d1902d1461033b578063557d93bb1461035e57806355c338aa146103cd57806359d785e0146103ed578063627cdcb91461040d578063715018a61461042257806371e6977e14610437578063788269f2146104585780637e390cd3146104965780637ecebe00146104b65780638076f005146104e4578063845380a21461051557806386bff828146105365780638a29e2de1461055d5780638da5cb5b1461057d5780639b995f5c14610592578063aa2d59fd146105b3578063b0e21e8a146105d3578063b236a291146105e9578063b8ca3b8314610620578063d464e5bd14610636578063d83e5f4d14610656578063de02d1701461066c578063e104ae591461068d578063e8cbe6a9146106bd578063eab83bc5146106dd578063f2fde38b146106f0578063f80971cc14610710578063fa5e429614610730578063fcdc422a14610761578063fe68747514610781575b600080fd5b6101ee6101e9366004613bb0565b6107a1565b005b3480156101fc57600080fd5b506101ee61020b366004613c7c565b610c9c565b34801561021c57600080fd5b506101ee61022b366004613cb5565b610d31565b34801561023c57600080fd5b506101ee61024b366004613cb5565b610dad565b34801561025c57600080fd5b506101ee61026b366004613c7c565b610e22565b34801561027c57600080fd5b506101ee61028b366004613cf3565b610e83565b34801561029c57600080fd5b506101ee6102ab366004613d21565b610eed565b3480156102bc57600080fd5b506102d06102cb366004613d3e565b610fb5565b60405190151581526020015b60405180910390f35b3480156102f157600080fd5b5061031b610300366004613d72565b60fd602052600090815260409020546001600160a01b031681565b6040516102dc9190613d9c565b6101ee610336366004613e8d565b61103d565b34801561034757600080fd5b506103506110f6565b6040519081526020016102dc565b34801561036a57600080fd5b506103a6610379366004613d21565b60ff602052600090815260409020546001600160a01b03811690600160a01b90046001600160601b031682565b604080516001600160a01b0390931683526001600160601b039091166020830152016102dc565b3480156103d957600080fd5b506101ee6103e8366004613edc565b6111a4565b3480156103f957600080fd5b506101ee610408366004613d21565b61122f565b34801561041957600080fd5b506101ee611259565b34801561042e57600080fd5b506101ee6112b6565b34801561044357600080fd5b506101355461031b906001600160a01b031681565b34801561046457600080fd5b506101015461047f90600160a01b900465ffffffffffff1681565b60405165ffffffffffff90911681526020016102dc565b3480156104a257600080fd5b506101ee6104b1366004613d21565b6112ca565b3480156104c257600080fd5b506103506104d1366004613d21565b6101346020526000908152604090205481565b3480156104f057600080fd5b506102d06104ff366004613f1d565b6101326020526000908152604090205460ff1681565b34801561052157600080fd5b506101005461031b906001600160a01b031681565b34801561054257600080fd5b506101015461047f90600160d01b900465ffffffffffff1681565b34801561056957600080fd5b506101ee610578366004613f36565b6112f5565b34801561058957600080fd5b5061031b611531565b34801561059e57600080fd5b506101015461031b906001600160a01b031681565b3480156105bf57600080fd5b506101ee6105ce366004613d3e565b611540565b3480156105df57600080fd5b5061035060fc5481565b3480156105f557600080fd5b50610609610604366004613ff0565b6115fd565b6040805192151583526020830191909152016102dc565b34801561062c57600080fd5b5061047f6107d081565b34801561064257600080fd5b506101ee610651366004613edc565b61164e565b34801561066257600080fd5b5061047f61271081565b34801561067857600080fd5b506101365461031b906001600160a01b031681565b34801561069957600080fd5b506102d06106a8366004613d21565b60fe6020526000908152604090205460ff1681565b3480156106c957600080fd5b506101ee6106d8366004613d21565b611833565b6101ee6106eb366004613ff0565b61185e565b3480156106fc57600080fd5b506101ee61070b366004613d21565b611c57565b34801561071c57600080fd5b5060fb5461031b906001600160a01b031681565b34801561073c57600080fd5b506102d061074b366004613d21565b6101376020526000908152604090205460ff1681565b34801561076d57600080fd5b506101ee61077c366004613d3e565b611ccd565b34801561078d57600080fd5b506101ee61079c366004613f1d565b611dc0565b6107a9611e12565b6000610839866040518060600160405280876000600281106107cd576107cd61404c565b6020020160208101906107e09190614062565b60ff168152863560208201526040018560005b602002013581525061013460008a60000160208101906108139190613d21565b6001600160a01b03166001600160a01b0316815260200190815260200160002054611e6b565b9050600061088c8660405180606001604052808860016002811061085f5761085f61404c565b6020020160208101906108729190614062565b60ff168152602088810135908201526040018660016107f3565b905061089b6020880188613d21565b6001600160a01b0316336001600160a01b031614806108d757506108c26020870187613d21565b6001600160a01b0316336001600160a01b0316145b806108f25750336000908152610137602052604090205460ff165b6109175760405162461bcd60e51b815260040161090e9061407d565b60405180910390fd5b61013554604051630e48bbab60e11b81526001600160a01b0390911690631c9177569061094f908a908a903390600090600401614346565b602060405180830381865afa15801561096c573d6000803e3d6000fd5b505050506040513d601f19601f82011682018060405250810190610990919061438d565b61099957600080fd5b6000818152610132602090815260408083208054600160ff19918216811790925586855291842080549092161790556109dd906109d8908901896143aa565b611e96565b80156109f957506109f96109f460208a018a6143aa565b611f09565b610a3657610a0d6109d860208a018a6143aa565b8015610a245750610a246109f460208901896143aa565b610a2f576004610a39565b6003610a39565b60025b905060005b610a4b60208901896143aa565b9050811015610af957610af1610a696101208b016101008c016143f3565b610a7660208b018b6143aa565b84818110610a8657610a8661404c565b9050602002810190610a98919061440e565b610aa1906144df565b610aae60208c018c613d21565b610abb60208e018e613d21565b600060035b886004811115610ad257610ad2614249565b148f8060200190610ae391906143aa565b610aec916144eb565b611fe8565b600101610a3e565b5060005b610b0a60208a018a6143aa565b9050811015610ba957610ba1610b286101208b016101008c016143f3565b610b3560208c018c6143aa565b84818110610b4557610b4561404c565b9050602002810190610b57919061440e565b610b60906144df565b610b6d60208d018d613d21565b610b7a60208d018d613d21565b60006002886004811115610b9057610b90614249565b148e8060200190610ae391906143aa565b600101610afd565b50604051600090339047908381818185875af1925050503d8060008114610bec576040519150601f19603f3d011682016040523d82523d6000602084013e610bf1565b606091505b5050905080610bff57600080fd5b6101365460405163cb4261ad60e01b81526001600160a01b039091169063cb4261ad90610c3c90879087908e908e908e908e908e9060040161456e565b6020604051808303816000875af1158015610c5b573d6000803e3d6000fd5b505050506040513d601f19601f82011682018060405250810190610c7f919061438d565b610c8857600080fd5b50505050610c9560018055565b5050505050565b610ca4612811565b6001600160a01b038216600090815260fe602052604090205481151560ff909116151503610cd157600080fd5b6001600160a01b038216600081815260fe6020908152604091829020805460ff191685151590811790915591519182527f3f50d04114467f3ca25c50f1540e2864f8a852c0380bbbbb603ebfda10b5baf291015b60405180910390a25050565b610d39612811565b6127108165ffffffffffff161115610d5057600080fd5b61010180546001600160d01b0316600160d01b65ffffffffffff8416908102919091179091556040519081527f27e2043ec931e1e2f804d7bb93bc32d65f1c61974b8f5cf32da26700ccf54ec9906020015b60405180910390a150565b610db5612811565b6107d065ffffffffffff82161115610dcc57600080fd5b610101805465ffffffffffff60a01b1916600160a01b65ffffffffffff8481168202929092179283905560fc5460408051918252919093049091166020830152600080516020614b588339815191529101610da2565b610e2a612811565b6001600160a01b03821660008181526101376020908152604091829020805460ff191685151590811790915591519182527f7366c09787a3d71d2fc26524cf1304754a2fabd03044784a098b9854098c09d09101610d25565b610e8b612811565b6001600160e01b03198216600081815260fd60205260409081902080546001600160a01b0319166001600160a01b038516179055517f4b5aced933c0c9a88aeac3f0b3b72c5aaf75df8ebaf53225773248c4c315359390610d25908490613d9c565b6001600160a01b037f0000000000000000000000000000000000000000000000000000000000000000163003610f355760405162461bcd60e51b815260040161090e906145f7565b7f00000000000000000000000000000000000000000000000000000000000000006001600160a01b0316610f67612870565b6001600160a01b031614610f8d5760405162461bcd60e51b815260040161090e90614631565b610f968161288c565b60408051600080825260208201909252610fb291839190612894565b50565b60008160800135600003610fc857600080fd5b60006110058361013483610fdf6020840184613d21565b6001600160a01b03166001600160a01b0316815260200190815260200160002054612a04565b600081815261013360205260409020549091501580159061103657506000818152610132602052604090205460ff16155b9392505050565b6001600160a01b037f00000000000000000000000000000000000000000000000000000000000000001630036110855760405162461bcd60e51b815260040161090e906145f7565b7f00000000000000000000000000000000000000000000000000000000000000006001600160a01b03166110b7612870565b6001600160a01b0316146110dd5760405162461bcd60e51b815260040161090e90614631565b6110e68261288c565b6110f282826001612894565b5050565b6000306001600160a01b037f000000000000000000000000000000000000000000000000000000000000000016146111915760405162461bcd60e51b815260206004820152603860248201527f555550535570677261646561626c653a206d757374206e6f742062652063616c6044820152771b1959081d1a1c9bdd59da0819195b1959d85d1958d85b1b60421b606482015260840161090e565b50600080516020614b7883398151915290565b6111ac612811565b6127108111156111bb57600080fd5b6001600160a01b03808416600081815260ff6020526040908190206001600160601b038516600160a01b02938616938417905551339291907f9966232dec326ad31fe3dac15757bae24e831ff83b601d234bbdf84e61c05fe8906112229086815260200190565b60405180910390a4505050565b611237612811565b60fb80546001600160a01b0319166001600160a01b0392909216919091179055565b336000908152610134602052604081208054829061127690614681565b918290555060405181815290915033907fa82a649bbd060c9099cd7b7326e2b0dc9e9af0836480e0f849dc9eaa79710b3b9060200160405180910390a250565b6112be612811565b6112c86000612ac2565b565b6112d2612811565b61010180546001600160a01b0319166001600160a01b0392909216919091179055565b600054610100900460ff16158080156113155750600054600160ff909116105b80611336575061132430612b14565b158015611336575060005460ff166001145b6113995760405162461bcd60e51b815260206004820152602e60248201527f496e697469616c697a61626c653a20636f6e747261637420697320616c72656160448201526d191e481a5b9a5d1a585b1a5e995960921b606482015260840161090e565b6000805460ff1916600117905580156113bc576000805461ff0019166101001790555b6113c4612b23565b6113cc612b52565b60fd602052600080516020614af883398151915280546001600160a01b03199081166001600160a01b038b811691909117909255600080516020614b98833981519152805482168c8416908117909155600080516020614ad883398151915280548316909117905560016234de6560e21b03196000527f1ee8d6988a91bbf2f207f3146ffa20395b492ffa0c3d8ae2775d23c24acef4a3805482168a841617905560fb80548216898416179055606460fc556101018054610100805484168a8616179055601960a11b6001600160d01b031990911686851617176001600160d01b031661027160d31b17905561013580548784169083161790556101368054928616929091169190911790556114e0612b79565b8015611526576000805461ff0019169055604051600181527f7f26b83ff96e1f2b6a682f133852f6798a09c465da95921460cefb38474024989060200160405180910390a15b505050505050505050565b60c9546001600160a01b031690565b611548611e12565b6115556020820182613d21565b6001600160a01b0316336001600160a01b03161461157257600080fd5b806080013560000361158357600080fd5b600061159a8261013483610fdf6020840184613d21565b6000818152610132602052604090819020805460ff191660011790555190915033907f383447dfd40b32b73af346d8a498d4f50e93188330a1901d6c2add893d520e32906115eb9084815260200190565b60405180910390a250610fb260018055565b600080806116168761013483610fdf6020840184613d21565b9050611640818860405180606001604052808a60ff16815260200189815260200188815250612ba8565b925090505b94509492505050565b61271081111561165d57600080fd5b6040516301ffc9a760e01b815263152a902d60e11b60048201526001600160a01b038416906301ffc9a790602401602060405180830381865afa1580156116a8573d6000803e3d6000fd5b505050506040513d601f19601f820116820180604052508101906116cc919061438d565b156117045760405162461bcd60e51b8152602060048201526008602482015267216572633239383160c01b604482015260640161090e565b826001600160a01b0316638da5cb5b6040518163ffffffff1660e01b8152600401602060405180830381865afa158015611742573d6000803e3d6000fd5b505050506040513d601f19601f82011682018060405250810190611766919061469a565b6001600160a01b0316336001600160a01b031614806117f75750826001600160a01b031663f851a4406040518163ffffffff1660e01b8152600401602060405180830381865afa1580156117be573d6000803e3d6000fd5b505050506040513d601f19601f820116820180604052508101906117e2919061469a565b6001600160a01b0316336001600160a01b0316145b6111bb5760405162461bcd60e51b815260206004820152600d60248201526c10b7bbb732b91790b0b236b4b760991b604482015260640161090e565b61183b612811565b61010080546001600160a01b0319166001600160a01b0392909216919091179055565b611866611e12565b60006118a28560405180606001604052808760ff1681526020018681526020018581525061013460008960000160208101906108139190613d21565b6101355460405163726c458760e01b81529192506001600160a01b03169063726c4587906118d690889033906004016146b7565b602060405180830381865afa1580156118f3573d6000803e3d6000fd5b505050506040513d601f19601f82011682018060405250810190611917919061438d565b61192057600080fd5b61192d6020860186613d21565b6001600160a01b031633036119545760405162461bcd60e51b815260040161090e9061407d565b600061196360608701876143aa565b91506000905061197660208801886143aa565b600085815261013260205260408120805460ff1916600117905590925090506119a56109d860608a018a6143aa565b80156119bc57506119bc6109f460208a018a6143aa565b6119f9576119d06109d860208a018a6143aa565b80156119e757506119e76109f460608a018a6143aa565b6119f25760046119fc565b60016119fc565b60005b905060005b83811015611b2957611b21611a1e6101208b016101008c016143f3565b611a2b60608c018c6143aa565b84818110611a3b57611a3b61404c565b9050602002810190611a4d919061440e565b611a56906144df565b33611a6460208e018e613d21565b60028e610100016020810190611a7a91906143f3565b6002811115611a8b57611a8b614249565b14611a97576000611b1a565b61013560009054906101000a90046001600160a01b03166001600160a01b0316636261aac98f6040518263ffffffff1660e01b8152600401611ad991906146e1565b602060405180830381865afa158015611af6573d6000803e3d6000fd5b505050506040513d601f19601f82011682018060405250810190611b1a91906146f4565b6001610ac0565b600101611a01565b5060005b82811015611bbe57611bb6611b4a6101208b016101008c016143f3565b611b5760208c018c6143aa565b84818110611b6757611b6761404c565b9050602002810190611b79919061440e565b611b82906144df565b611b8f60208d018d613d21565b33600080886004811115611ba557611ba5614249565b148f8060600190610ae391906143aa565b600101611b2d565b506101365460405163cfcf730360e01b81526001600160a01b039091169063cfcf730390611bf89087908c908c908c908c9060040161470d565b6020604051808303816000875af1158015611c17573d6000803e3d6000fd5b505050506040513d601f19601f82011682018060405250810190611c3b919061438d565b611c4457600080fd5b50505050611c5160018055565b50505050565b611c5f612811565b6001600160a01b038116611cc45760405162461bcd60e51b815260206004820152602660248201527f4f776e61626c653a206e6577206f776e657220697320746865207a65726f206160448201526564647265737360d01b606482015260840161090e565b610fb281612ac2565b611cd5611e12565b611ce26020820182613d21565b6001600160a01b0316336001600160a01b031614611cff57600080fd5b8060800135600003611d1057600080fd5b6000611d278261013483610fdf6020840184613d21565b6000818152610133602052604090205490915015611d4457600080fd5b6101346000611d566020850185613d21565b6001600160a01b03168152602081019190915260400160002054611d7b906001614746565b60008281526101336020908152604091829020929092555182815233917fec6590fa5d86db2e9b3ced5caae4916c2547c5a4bef3cb4bdf11f1d1995a8ee491016115eb565b611dc8612811565b6107d0811115611dd757600080fd5b60fc8190556101015460408051838152600160a01b90920465ffffffffffff166020830152600080516020614b588339815191529101610da2565b600260015403611e645760405162461bcd60e51b815260206004820152601f60248201527f5265656e7472616e637947756172643a207265656e7472616e742063616c6c00604482015260640161090e565b6002600155565b600080611e788584612a04565b9050611e85818686612ba8565b611e8e57600080fd5b949350505050565b6000600182148015611ef257506339d690a360e11b8383600081611ebc57611ebc61404c565b9050602002810190611ece919061440e565b611ed8908061440e565b611ee6906020810190613d72565b6001600160e01b031916145b15611eff57506001611f03565b5060005b92915050565b6000805b82811015611fde576322ba176160e21b848483818110611f2f57611f2f61404c565b9050602002810190611f41919061440e565b611f4b908061440e565b611f59906020810190613d72565b6001600160e01b03191614801590611fbd57506355575f5d60e11b848483818110611f8657611f8661404c565b9050602002810190611f98919061440e565b611fa2908061440e565b611fb0906020810190613d72565b6001600160e01b03191614155b15611fcc576000915050611f03565b80611fd681614681565b915050611f0d565b5060019392505050565b60fb546001600160a01b0316611ffd57600080fd5b6001600160a01b0384161580159061201d57506001600160a01b03851615155b61202657600080fd5b6000600288600281111561203c5761203c614249565b14801561205157506001600160a01b03861633145b1561205d575082612079565b86602001518060200190518101906120759190614759565b5090505b8060000361208657600080fd5b8651516001600160e01b031916632aa8a0a360e11b016120b2576120ad8686838686612d8e565b6127b6565b8651516001600160e01b031916631d45e89f60e21b016125845760008760000151602001518060200190518101906120ea919061469a565b6001600160a01b038116600090815260fe602052604090205490915060ff1661213f5760405162461bcd60e51b81526020600482015260076024820152661d08085b1a5cdd60ca1b604482015260640161090e565b6000841561235c5783516001146121805760405162461bcd60e51b81526020600482015260056024820152643a103632b760d91b604482015260640161090e565b600080516020614b188339815191526001600160e01b031916846000815181106121ac576121ac61404c565b602090810291909101015151516001600160e01b031916146121f95760405162461bcd60e51b815260206004820152600660248201526574202137323160d01b604482015260640161090e565b60008460008151811061220e5761220e61404c565b60200260200101516000015160200151806020019051810190612231919061477d565b50506001600160a01b03808216600090815260ff6020526040902054919250161580159061228657506001600160a01b038116600090815260ff6020526040902054600160a01b90046001600160601b031615155b1561235a576001600160a01b038116600090815260ff6020526040902054612710906122c290600160a01b90046001600160601b0316866147c0565b6122cc91906147d7565b600080516020614af8833981519152546001600160a01b03838116600090815260ff60205260409081902054905163776062c360e01b81529395509181169263776062c3926123279288928f929091169088906004016147f9565b600060405180830381600087803b15801561234157600080fd5b505af1158015612355573d6000803e3d6000fd5b505050505b505b60006123678961313f565b6123735760fc54612387565b61010154600160a01b900465ffffffffffff165b610100549091506000906001600160a01b038581169116146123a957816123e8565b610101546127109083906123cc90600160d01b900465ffffffffffff1683614823565b65ffffffffffff166123de91906147c0565b6123e891906147d7565b90506000612710826123fa8689614849565b61240491906147c0565b61240e91906147d7565b905060fd60007f8ae85d849167ff996c04040c44924fd364217285e4cad818292c7ac37c0a345b6001600160e01b0319166001600160e01b031916815260200190815260200160002060009054906101000a90046001600160a01b03166001600160a01b031663776062c3868d60fb60009054906101000a90046001600160a01b0316856040518563ffffffff1660e01b81526004016124b194939291906147f9565b600060405180830381600087803b1580156124cb57600080fd5b505af11580156124df573d6000803e3d6000fd5b50506322ba176160e21b600052505060fd602052600080516020614af8833981519152546001600160a01b031663776062c3868d8d8561251f8a8d614849565b6125299190614849565b6040518563ffffffff1660e01b815260040161254894939291906147f9565b600060405180830381600087803b15801561256257600080fd5b505af1158015612576573d6000803e3d6000fd5b5050505050505050506127b6565b8651516001600160e01b0319166346296f5d60e11b01612687576000808860000151602001518060200190518101906125bd919061477d565b5091509150826001146125fb5760405162461bcd60e51b815260040161090e906020808252600490820152637420213160e01b604082015260600190565b6339d690a360e11b60005260fd602052600080516020614b9883398151915254604051637b84dc8360e11b81526001600160a01b039091169063f709b9069061264e9085908c908c9087906004016147f9565b600060405180830381600087803b15801561266857600080fd5b505af115801561267c573d6000803e3d6000fd5b5050505050506127b6565b8651516001600160e01b0319166301a3112760e61b01612735576000808860000151602001518060200190518101906126c0919061477d565b5063025ceed960e61b60005260fd602052600080516020614ad8833981519152546040516345b3146d60e01b81526001600160a01b0380851660048301528c811660248301528b81166044830152606482018490526084820188905293955091935091909116906345b3146d9060a40161264e565b8651516001600160e01b031916600090815260fd60205260409081902054905163b647b5ad60e01b81526001600160a01b039091169063b647b5ad90612783908a908a908a906004016148f8565b600060405180830381600087803b15801561279d57600080fd5b505af11580156127b1573d6000803e3d6000fd5b505050505b846001600160a01b0316866001600160a01b03167f4b63b2bb1a8fa9240debba9df851a32e45ad3adb17eb27e3a336f33afc2f0662896040516127f9919061492b565b60405180910390a35050505050505050565b60018055565b3361281a611531565b6001600160a01b0316146112c85760405162461bcd60e51b815260206004820181905260248201527f4f776e61626c653a2063616c6c6572206973206e6f7420746865206f776e6572604482015260640161090e565b600080516020614b78833981519152546001600160a01b031690565b610fb2612811565b7f4910fdfa16fed3260ed0e7147f7cc6da11a60208b5b9406d12a635614ffd91435460ff16156128cc576128c783613241565b505050565b826001600160a01b03166352d1902d6040518163ffffffff1660e01b8152600401602060405180830381865afa925050508015612926575060408051601f3d908101601f19168201909252612923918101906146f4565b60015b6129895760405162461bcd60e51b815260206004820152602e60248201527f45524331393637557067726164653a206e657720696d706c656d656e7461746960448201526d6f6e206973206e6f74205555505360901b606482015260840161090e565b600080516020614b7883398151915281146129f85760405162461bcd60e51b815260206004820152602960248201527f45524331393637557067726164653a20756e737570706f727465642070726f786044820152681a58589b195555525160ba1b606482015260840161090e565b506128c78383836132db565b60007f053e8fcac9e5a58b5314ab8c05ca306e62ac17965611b1a3dec48e658d2f49b3612a346020850185613d21565b612a49612a4460208701876143aa565b613300565b612a596060870160408801613d21565b612a69612a4460608901896143aa565b608088013560a089013560c08a013589612a8b6101208d016101008e016143f3565b604051602001612aa49a9998979695949392919061493e565b60405160208183030381529060405280519060200120905092915050565b60c980546001600160a01b038381166001600160a01b0319831681179093556040519116919082907f8be0079c531659141344cd1fd0a4f28419497f9722a3daafe3b4186f6b6457e090600090a35050565b6001600160a01b03163b151590565b600054610100900460ff16612b4a5760405162461bcd60e51b815260040161090e906149a5565b6112c86133de565b600054610100900460ff166112c85760405162461bcd60e51b815260040161090e906149a5565b600054610100900460ff16612ba05760405162461bcd60e51b815260040161090e906149a5565b6112c8613405565b6000612bb383613435565b6000848152610132602052604090205460ff1615612bd357506000611036565b600084815261013360205260409020548015612c28576101346000612bfb6020870187613d21565b6001600160a01b03168152602081019190915260400160002054612c20906001614746565b149050611036565b6000612c33866135c3565b9050612c426020860186613d21565b6001600160a01b0316612c6382866000015187602001518860400151613674565b6001600160a01b031603612c7c57600192505050611036565b612c9a612c8c6020870187613d21565b6001600160a01b0316612b14565b15612d8257630b135d3f60e11b612cb46020870187613d21565b6001600160a01b0316631626ba7e83612cda886000015189602001518a6040015161369c565b6040518363ffffffff1660e01b8152600401612cf79291906149f0565b602060405180830381865afa158015612d14573d6000803e3d6000fd5b505050506040513d601f19601f82011682018060405250810190612d389190614a09565b6001600160e01b03191614612d775760405162461bcd60e51b8152602060048201526005602482015264213132373160d81b604482015260640161090e565b600192505050611036565b50600095945050505050565b60008215612ff0578151600114612e005760405162461bcd60e51b815260206004820152603060248201527f4e46542e636f6d3a20526f79616c7479206e6f7420737570706f72746564206660448201526f6f72206d756c7469706c65204e46547360801b606482015260840161090e565b600080516020614b188339815191526001600160e01b03191682600081518110612e2c57612e2c61404c565b602090810291909101015151516001600160e01b03191614612e7a5760405162461bcd60e51b81526020600482015260076024820152667465202137323160c81b604482015260640161090e565b600082600081518110612e8f57612e8f61404c565b60200260200101516000015160200151806020019051810190612eb2919061477d565b50506001600160a01b03808216600090815260ff60205260409020549192501615801590612f0757506001600160a01b038116600090815260ff6020526040902054600160a01b90046001600160601b031615155b15612fee576001600160a01b038116600090815260ff602052604090205461271090612f4390600160a01b90046001600160601b0316876147c0565b612f4d91906147d7565b6001600160a01b03828116600090815260ff6020526040808220549051939550909291169084908381818185875af1925050503d8060008114612fac576040519150601f19603f3d011682016040523d82523d6000602084013e612fb1565b606091505b5050905080612fec5760405162461bcd60e51b81526020600482015260076024820152667465202172747960c81b604482015260640161090e565b505b505b6000612710612ffe8861313f565b61300a5760fc5461301e565b61010154600160a01b900465ffffffffffff165b6130288488614849565b61303291906147c0565b61303c91906147d7565b60fb546040519192506000916001600160a01b039091169083908381818185875af1925050503d806000811461308e576040519150601f19603f3d011682016040523d82523d6000602084013e613093565b606091505b505090506000876001600160a01b03168385896130b09190614849565b6130ba9190614849565b604051600081818185875af1925050503d80600081146130f6576040519150601f19603f3d011682016040523d82523d6000602084013e6130fb565b606091505b505090508180156131095750805b6115265760405162461bcd60e51b81526020600482015260076024820152660e8ca4042cae8d60cb1b604482015260640161090e565b61010154604051600091829182916001600160a01b0316907f70a08231b98ef4ca268c9cc3f6b4590e4bfec28280db06bb5d45e689f2a360be90613187908790602401613d9c565b60408051601f198184030181529181526020820180516001600160e01b03166001600160e01b03199094169390931790925290516131c59190614a26565b600060405180830381855afa9150503d8060008114613200576040519150601f19603f3d011682016040523d82523d6000602084013e613205565b606091505b509150915081801561321957506020815110155b61322257600080fd5b60008180602001905181019061323891906146f4565b11949350505050565b61324a81612b14565b6132ac5760405162461bcd60e51b815260206004820152602d60248201527f455243313936373a206e657720696d706c656d656e746174696f6e206973206e60448201526c1bdd08184818dbdb9d1c9858dd609a1b606482015260840161090e565b600080516020614b7883398151915280546001600160a01b0319166001600160a01b0392909216919091179055565b6132e4836136dc565b6000825111806132f15750805b156128c757611c51838361371c565b600080826001600160401b0381111561331b5761331b613db0565b604051908082528060200260200182016040528015613344578160200160208202803683370190505b50905060005b838110156133ad5761337e8585838181106133675761336761404c565b9050602002810190613379919061440e565b61380e565b8282815181106133905761339061404c565b6020908102919091010152806133a581614681565b91505061334a565b50806040516020016133bf9190614a38565b6040516020818303038152906040528051906020012091505092915050565b600054610100900460ff1661280b5760405162461bcd60e51b815260040161090e906149a5565b600054610100900460ff1661342c5760405162461bcd60e51b815260040161090e906149a5565b6112c833612ac2565b60006134446020830183613d21565b6001600160a01b0316036134835760405162461bcd60e51b815260206004820152600660248201526506c733a2021360d41b604482015260640161090e565b60a081013515806134975750428160a00135105b6134d75760405162461bcd60e51b81526020600482015260116024820152701b1cce881cdd185c9d08195e1c1a5c9959607a1b604482015260640161090e565b60c081013515806134eb5750428160c00135115b6135295760405162461bcd60e51b815260206004820152600f60248201526e1b1cce88195b9908195e1c1a5c9959608a1b604482015260640161090e565b61353660208201826143aa565b90506000036135765760405162461bcd60e51b815260206004820152600c60248201526b06c733a206d616b65203e20360a41b604482015260640161090e565b61358360608201826143aa565b9050600003610fb25760405162461bcd60e51b815260206004820152600c60248201526b06c733a2074616b65203e20360a41b604482015260640161090e565b6000611f0361366e604080517f8b73c3c69bb8fe3d512ecc4cf759cc79239f7b179b0ffacaa9a75d522b39400f6020808301919091527f90a3ffbb9d8bd8316ef406c0da0040e27b327b14a59f0e34ae3835bb3661e0cb828401527fc89efdaa54c0f20c7adf612882df0950f5a951637e0307cdcb4c672f298b8bc660608301524660808301523060a0808401919091528351808403909101815260c0909201909252805191012090565b836138a3565b6000806000613685878787876138ca565b9150915061369281613981565b5095945050505050565b604080516041808252608082019092526060916000919060208201818036833750505060208101949094525050604082015260f89190911b606082015290565b6136e581613241565b6040516001600160a01b038216907fbc7cd75a20ee27fd9adebab32041f755214dbc6bffa90cc0225b39da2e5c2d3b90600090a250565b606061372783612b14565b6137825760405162461bcd60e51b815260206004820152602660248201527f416464726573733a2064656c65676174652063616c6c20746f206e6f6e2d636f6044820152651b9d1c9858dd60d21b606482015260840161090e565b600080846001600160a01b03168460405161379d9190614a26565b600060405180830381855af49150503d80600081146137d8576040519150601f19603f3d011682016040523d82523d6000602084013e6137dd565b606091505b50915091506138058282604051806060016040528060278152602001614bb860279139613ac6565b95945050505050565b60007f2aad2e180346f7a007f74f42e3ec19ab976dc5dbb7ac4cdb44e7b9fc99014b3c61384361383e848061440e565b613adf565b6138506020850185614a6e565b60405161385e929190614ab4565b6040519081900381206138869392916020019283526020830191909152604082015260600190565b604051602081830303815290604052805190602001209050919050565b60405161190160f01b60208201526022810183905260428101829052600090606201612aa4565b6000806fa2a8918ca85bafe22016d0b997e4df60600160ff1b038311156138f75750600090506003611645565b6040805160008082526020820180845289905260ff881692820192909252606081018690526080810185905260019060a0016020604051602081039080840390855afa15801561394b573d6000803e3d6000fd5b5050604051601f1901519150506001600160a01b03811661397457600060019250925050611645565b9660009650945050505050565b600081600481111561399557613995614249565b0361399d5750565b60018160048111156139b1576139b1614249565b036139f95760405162461bcd60e51b815260206004820152601860248201527745434453413a20696e76616c6964207369676e617475726560401b604482015260640161090e565b6002816004811115613a0d57613a0d614249565b03613a5a5760405162461bcd60e51b815260206004820152601f60248201527f45434453413a20696e76616c6964207369676e6174757265206c656e67746800604482015260640161090e565b6003816004811115613a6e57613a6e614249565b03610fb25760405162461bcd60e51b815260206004820152602260248201527f45434453413a20696e76616c6964207369676e6174757265202773272076616c604482015261756560f01b606482015260840161090e565b60608315613ad5575081611036565b6110368383613b5c565b60007f452a0dc408cb0d27ffc3b3caff933a5208040a53a9dbecd8d89cad2c0d40e00c613b0f6020840184613d72565b613b1c6020850185614a6e565b604051613b2a929190614ab4565b6040519081900381206138869392916020019283526001600160e01b0319919091166020830152604082015260600190565b815115613b6c5781518083602001fd5b8060405162461bcd60e51b815260040161090e9190614ac4565b60006101208284031215613b9957600080fd5b50919050565b8060408101831015611f0357600080fd5b60008060008060006101008688031215613bc957600080fd5b85356001600160401b0380821115613be057600080fd5b613bec89838a01613b86565b96506020880135915080821115613c0257600080fd5b50613c0f88828901613b86565b945050613c1f8760408801613b9f565b9250613c2e8760808801613b9f565b9150613c3d8760c08801613b9f565b90509295509295909350565b6001600160a01b0381168114610fb257600080fd5b8035613c6981613c49565b919050565b8015158114610fb257600080fd5b60008060408385031215613c8f57600080fd5b8235613c9a81613c49565b91506020830135613caa81613c6e565b809150509250929050565b600060208284031215613cc757600080fd5b813565ffffffffffff8116811461103657600080fd5b6001600160e01b031981168114610fb257600080fd5b60008060408385031215613d0657600080fd5b8235613d1181613cdd565b91506020830135613caa81613c49565b600060208284031215613d3357600080fd5b813561103681613c49565b600060208284031215613d5057600080fd5b81356001600160401b03811115613d6657600080fd5b611e8e84828501613b86565b600060208284031215613d8457600080fd5b813561103681613cdd565b6001600160a01b03169052565b6001600160a01b0391909116815260200190565b634e487b7160e01b600052604160045260246000fd5b604080519081016001600160401b0381118282101715613de857613de8613db0565b60405290565b604051601f8201601f191681016001600160401b0381118282101715613e1657613e16613db0565b604052919050565b600082601f830112613e2f57600080fd5b81356001600160401b03811115613e4857613e48613db0565b613e5b601f8201601f1916602001613dee565b818152846020838601011115613e7057600080fd5b816020850160208301376000918101602001919091529392505050565b60008060408385031215613ea057600080fd5b8235613eab81613c49565b915060208301356001600160401b03811115613ec657600080fd5b613ed285828601613e1e565b9150509250929050565b600080600060608486031215613ef157600080fd5b8335613efc81613c49565b92506020840135613f0c81613c49565b929592945050506040919091013590565b600060208284031215613f2f57600080fd5b5035919050565b600080600080600080600080610100898b031215613f5357600080fd5b8835613f5e81613c49565b97506020890135613f6e81613c49565b96506040890135613f7e81613c49565b95506060890135613f8e81613c49565b94506080890135613f9e81613c49565b935060a0890135613fae81613c49565b925060c0890135613fbe81613c49565b915060e0890135613fce81613c49565b809150509295985092959890939650565b803560ff81168114613c6957600080fd5b6000806000806080858703121561400657600080fd5b84356001600160401b0381111561401c57600080fd5b61402887828801613b86565b94505061403760208601613fdf565b93969395505050506040820135916060013590565b634e487b7160e01b600052603260045260246000fd5b60006020828403121561407457600080fd5b61103682613fdf565b60208082526006908201526510b6b0b5b2b960d11b604082015260600190565b6000808335601e198436030181126140b457600080fd5b83016020810192503590506001600160401b038111156140d357600080fd5b8060051b36038213156140e557600080fd5b9250929050565b60008235603e1983360301811261410257600080fd5b90910192915050565b6000808335601e1984360301811261412257600080fd5b83016020810192503590506001600160401b0381111561414157600080fd5b8036038213156140e557600080fd5b81835281816020850137506000828201602090810191909152601f909101601f19169091010190565b81835260006020808501808196508560051b810191508460005b8781101561422d5782840389526141aa82886140ec565b60406141b682836140ec565b81875280356141c481613cdd565b6001600160e01b031916878301526141de8189018261410b565b91508260608901526141f4608089018383614150565b925050506142048783018361410b565b925086820388880152614218828483614150565b9b88019b965050509185019150600101614193565b5091979650505050505050565b803560038110613c6957600080fd5b634e487b7160e01b600052602160045260246000fd5b6003811061427d57634e487b7160e01b600052602160045260246000fd5b9052565b60006101206142988461429385613c5e565b613d8f565b6142a5602084018461409d565b8260208701526142b88387018284614179565b925050506142c860408401613c5e565b6142d56040860182613d8f565b506142e3606084018461409d565b85830360608701526142f6838284614179565b925050506080830135608085015260a083013560a085015260c083013560c085015260e083013560e085015261010061433081850161423a565b61433c8287018261425f565b5090949350505050565b6080815260006143596080830187614281565b828103602084015261436b8187614281565b6001600160a01b03959095166040840152505090151560609091015292915050565b60006020828403121561439f57600080fd5b815161103681613c6e565b6000808335601e198436030181126143c157600080fd5b8301803591506001600160401b038211156143db57600080fd5b6020019150600581901b36038213156140e557600080fd5b60006020828403121561440557600080fd5b6110368261423a565b60008235603e1983360301811261442457600080fd5b9190910192915050565b60006040828403121561444057600080fd5b614448613dc6565b905081356001600160401b038082111561446157600080fd5b908301906040828603121561447557600080fd5b61447d613dc6565b823561448881613cdd565b815260208301358281111561449c57600080fd5b6144a887828601613e1e565b6020830152508084525060208401359150808211156144c657600080fd5b506144d384828501613e1e565b60208301525092915050565b6000611f03368361442e565b60006001600160401b038084111561450557614505613db0565b8360051b6020614516818301613dee565b86815291850191818101903684111561452e57600080fd5b865b84811015614562578035868111156145485760008081fd5b61455436828b0161442e565b845250918301918301614530565b50979650505050505050565b60006101408983526020898185015281604085015261458f8285018a614281565b915083820360608501526145a38289614281565b92506080840191508660005b60028110156145d65760ff6145c383613fdf565b16845292820192908201906001016145af565b5050505060408460c084013760408361010084013798975050505050505050565b6020808252602c90820152600080516020614b3883398151915260408201526b19195b1959d85d1958d85b1b60a21b606082015260800190565b6020808252602c90820152600080516020614b3883398151915260408201526b6163746976652070726f787960a01b606082015260800190565b634e487b7160e01b600052601160045260246000fd5b6000600182016146935761469361466b565b5060010190565b6000602082840312156146ac57600080fd5b815161103681613c49565b6040815260006146ca6040830185614281565b905060018060a01b03831660208301529392505050565b6020815260006110366020830184614281565b60006020828403121561470657600080fd5b5051919050565b85815260a06020820152600061472660a0830187614281565b60ff95909516604083015250606081019290925260809091015292915050565b80820180821115611f0357611f0361466b565b6000806040838503121561476c57600080fd5b505080516020909101519092909150565b60008060006060848603121561479257600080fd5b835161479d81613c49565b6020850151604086015191945092506147b581613c6e565b809150509250925092565b8082028115828204841417611f0357611f0361466b565b6000826147f457634e487b7160e01b600052601260045260246000fd5b500490565b6001600160a01b039485168152928416602084015292166040820152606081019190915260800190565b65ffffffffffff8281168282160390808211156148425761484261466b565b5092915050565b81810381811115611f0357611f0361466b565b60005b8381101561487757818101518382015260200161485f565b50506000910152565b6000815180845261489881602086016020860161485c565b601f01601f19169290920160200192915050565b600081516040845263ffffffff60e01b815116604085015260208101519050604060608501526148df6080850182614880565b9050602083015184820360208601526138058282614880565b60608152600061490b60608301866148ac565b6001600160a01b0394851660208401529290931660409091015292915050565b60208152600061103660208301846148ac565b8a81526001600160a01b038a81166020830152604082018a9052881660608201526080810187905260a0810186905260c0810185905260e081018490526101008101839052610140810161499661012083018461425f565b9b9a5050505050505050505050565b6020808252602b908201527f496e697469616c697a61626c653a20636f6e7472616374206973206e6f74206960408201526a6e697469616c697a696e6760a81b606082015260800190565b828152604060208201526000611e8e6040830184614880565b600060208284031215614a1b57600080fd5b815161103681613cdd565b6000825161442481846020870161485c565b815160009082906020808601845b83811015614a6257815185529382019390820190600101614a46565b50929695505050505050565b6000808335601e19843603018112614a8557600080fd5b8301803591506001600160401b03821115614a9f57600080fd5b6020019150368190038213156140e557600080fd5b8183823760009101908152919050565b602081526000611036602083018461488056fe1b4fd1926e092ddaef9aa922d056d5815b6559e4908d6bb7d62ea36b2c427a4f921df7b0321dd1bf65149d117c2c67041e8c6324b771bc3dbd980f5e1e3ac04673ad2146b3d3a286642c794379d750360a2d53a3459a11b3e5d6cc900f55f44a46756e6374696f6e206d7573742062652063616c6c6564207468726f7567682058cc3e5615e77d3481658476130e2056ecc6be603ed37ab2f48b288e3205820f360894a13ba1a3210667c828492db98dca3e2076cc3735a920a3ca505d382bbc796a154e501d32bdd038be045a22853c24b7287d77a845ce5e321f4b7589e64f416464726573733a206c6f772d6c6576656c2064656c65676174652063616c6c206661696c6564a164736f6c6343000811000a",
    "linkReferences": {},
    "deployedLinkReferences": {}
}